:10000000A01300204D2C00000D6600007D2C000088
:100010007D2C00007D2C00007D2C000000000000E5
:10002000000000000000000000000000212A000085
:100030007D2C000000000000D92900004F65000061
:100040000D2C00000D2C00000D2C00000D2C0000CC
:100050000D2C00000D2C00000D2C00000D2C0000BC
:100060000D2C00000D2C00000D2C00000D2C0000AC
:100070000D2C00000D2C00000D2C00000D2C00009C
:100080000D2C00000D2C00000D2C00000D2C00008C
:100090000D2C00000D2C00000D2C00000D2C00007C
:1000A0000D2C00000D2C00000D2C00000D2C00006C
:1000B0000D2C00000D2C00000D2C00000D2C00005C
:1000C0000D2C00000D2C00000D2C00000D2C00004C
:0C00D0000D2C00000D2C00000D2C000079
:1000DC0053B94AB9002908BF00281CBF4FF0FF31A3
:1000EC004FF0FF3000F078B9ADF1080C6DE904CE9B
:1000FC0000F006F8DDF804E0DDE9022304B07047F7
:10010C002DE9F047089D0E4604468E46002B4CD137
:10011C008A42944667D9B2FA82F252B101FA02F3DA
:10012C00C2F1200120FA01F10CFA02FC41EA030EA3
:10013C0094404FEA1C48210CBEFBF8F61FFA8CF7D2
:10014C0008FB16E341EA034306FB07F199420AD97F
:10015C001CEB030306F1FF3080F01E81994240F244
:10016C001B81023E63445B1AA4B2B3FBF8F008FB9C
:10017C00103344EA034400FB07F7A7420AD91CEBEF
:10018C00040400F1FF3380F00981A74240F206819C
:10019C0064440238E41B40EA064000211DB1D440FF
:1001AC000023C5E90043BDE8F0878B4208D9002D38
:1001BC0000F0EF800021C5E900060846BDE8F08795
:1001CC00B3FA83F1002949D1B34202D3824200F23F
:1001DC00FF80841A66EB030301209E46002DE2D0BB
:1001EC00C5E9004EDFE702B9FFDEB2FA82F2002A5F
:1001FC0040F08E80A1EB0C064FEA1C471FFA8CF3E3
:10020C000121B6FBF7FE07FB1E60260C46EA0046F2
:10021C0003FB0EF0B04208D91CEB06060EF1FF38BA
:10022C0002D2B04200F2D080C646361AA4B2B6FB57
:10023C00F7F007FB106644EA064400FB03F3A34205
:10024C0008D91CEB040400F1FF3602D2A34200F2E1
:10025C00B8803046E41A40EA0E409FE7C1F120070F
:10026C0022FA07F48B40234306FA01FC26FA07F422
:10027C0020FA07F646EA0C064FEA134900FA01F891
:10028C00B4FBF9FE300C1FFA83FC09FB1E4440EA58
:10029C0004440EFB0CF0A04202FA01F20AD91C191C
:1002AC000EF1FF3A80F08B80A04240F28880AEF1D4
:1002BC00020E1C44241AB6B2B4FBF9F009FB10442C
:1002CC0046EA044400FB0CFCA44507D91C1900F1B8
:1002DC00FF3670D2A4456ED902381C4440EA0E4059
:1002EC00A0FB02E6A4EB0C04B442F446B14659D38D
:1002FC0056D0002D6ED0B8EB0C0364EB0904CB4048
:10030C0004FA07F71F43CC40C5E9007400214AE703
:10031C00C2F1200024FA00F10CFA02FC06FA02F3F6
:10032C0026FA00F04FEA1C4741EA0306B0FBF7F14E
:10033C001FFA8CF307FB110E300C40EA0E4001FB48
:10034C0003FE864504FA02F408D91CEB000001F107
:10035C00FF3832D2864530D902396044A0EB0E000A
:10036C00B6B2B0FBF7FE07FB1E0046EA00460EFBDA
:10037C0003F0B04209D91CEB06060EF1FF3818D277
:10038C00B04216D9AEF1020E6644361A4EEA01415D
:10039C0037E72946284606E70646E4E61846F9E616
:1003AC00F045A6D2BEEB020C66EB0303013899466E
:1003BC009FE7C646E9E7304690E74146CEE7D6468A
:1003CC0078E76444023845E7AEF1020E66442CE748
:1003DC00084603E72946E6E6704700BF2DE9F743D8
:1003EC005D4805F0B7FB00F039FB05F023FB05F089
:1003FC003DFB012000F0C0FA013008D1574805F050
:10040C00A9FB4FF48040002104F0AAFDFEE705F0A3
:10041C0033FB5348534D544E00F0C4F8012000F008
:10042C00C3F944F2480005F0A1F944F2480005F084
:10043C00A3F9002000F056FA33682B72002005F067
:10044C008AFA4A4C00210F2005F041F92042F9D0DC
:10045C0010F4804178D04FF4804200210F2005F039
:10046C0090F90021102005F032F9414FC0F3090139
:10047C000022384605F01CF97B790024572BBC7000
:10048C005ED1BA7933689A425AD1684605F019F9A7
:10049C000421234622461DF801001202013942EACA
:1004AC00136240EA0323F6D2324CDFF8CC901C19CD
:1004BC0042F10008200A40EA0860C9E9003205F060
:1004CC0034FA24F4FF7344F2480123F001035B185F
:1004DC0008F0FF0229492A4CAB7342F10002C1E932
:1004EC000032D9F80020AA72110AE972110C120E0E
:1004FC006A731A0AEA731A0C1B0E6B74237829732D
:10050C002A74AB7000223B7AAB712946142005F09B
:10051C009FF814200122002100F036F8012000F091
:10052C007FF9A8B900210F2005F0D1F80306F9D501
:10053C00802200210F2005F024F923780133237049
:10054C00022005F06BFA77E70E4A0F2005F019F937
:10055C0005F028FAF4E700BFCE700000E070000050
:10056C0084000020900000200000002000D0052412
:10057C005906002000004C044001002048010020D6
:10058C005806002000900524054B1B68DB6843EAE5
:10059C00C233034343EA81520820002105F0F1B82D
:1005AC00040000202DE9F843067847784279724B15
:1005BC00013F042E33F812800446FFB200F0BE80D7
:1005CC00F31FD3F1000949EB03096C4DE1792B685A
:1005DC005A69002940F0B58042F480025A614FEA12
:1005EC00D808217A5A691972090401F4403122F4AD
:1005FC0040320A435A610021042005F0C2F84246F9
:10060C0042F604012E2005F0A2F8384605F0F1F868
:10061C005B4B13F806805B4B072153F828202B20EB
:10062C0005F0AFF8584B0B2113F808202B2005F0E0
:10063C0081F8564B0B2113F80920282005F07AF885
:10064C00534B0C2153F82820282005F09AF8E27916
:10065C00A37903EB42034F4A022132F813202720DF
:10066C0005F075F84C4B042133F81720272005F0C2
:10067C006EF8E379002B68D164220621272005F05F
:10068C0066F8E378454A03EB8703082152F82320E8
:10069C00272005F076F8638913B941F24103638191
:1006AC00DFF8FC8062892021272008EB470705F042
:1006BC004EF8D8F800200C21232005F062F82320F6
:1006CC00BA88042105F043F8A079002852D0E379C8
:1006DC00344A2120D25C002105F02CF801220320A1
:1006EC00617906F00F0343EAC16361783601F6B213
:1006FC008904334301F440210B432179890501F02E
:10070C00F8610B4343EA005343EA424200211F20A5
:10071C0005F037F8A27863781343E279520342EA82
:10072C0003422B680021DA60082005F02AF8BDE8A6
:10073C00F843422200210D2004F0FCBF4FF00109C8
:10074C0043E722F480025A614BE7A378042B0AD1C9
:10075C0010220621272004F0FAFF10222621272040
:10076C0004F0E8FF8DE720220621272004F0EFFF9C
:10077C002822F3E70246B3E7907000000400002043
:10078C00EC700000F06E0000F7700000FD700000CF
:10079C00086F0000C27000008C700000D06E00006A
:1007AC00C86E0000F470000038B510F00105044666
:1007BC0029D00021262004F08AFF20F4705242F444
:1007CC00A0520021262004F0DCFF0021362004F08A
:1007DC007EFF002140F40402362004F0D2FF14F016
:1007EC0002040E4A4FF0280108BF4FF488723620DD
:1007FC0004F0C7FF84B14FF4887228213620BDE87D
:10080C00384004F0BEBF2946262004F060FF29467C
:10081C0020F470522620F2E738BD00BF10010F0003
:10082C0010F0020210B5044609D0802200210D20E0
:10083C0004F080FF144B1B6801229A76802214F07E
:10084C00010418D042F0060200210D2004F072FFC2
:10085C0003210F2004F050FF10F481600AD04022D5
:10086C000D20002104F066FF074B1B6800229A76CE
:10087C004FF0FF3010BD0D2042F00202214604F073
:10088C0059FF2046F6E700BF0400002038B50021D0
:10089C000E2004F01CFF054605F01AF90022114643
:1008AC0004460E2004F06DFF402200210D2004F0C0
:1008BC0041FF0A4A00210F2004F063FF05F03AF8CB
:1008CC002A4600210E2004F05CFF204605F009F9B1
:1008DC00034B1B6800229A7638BD00BFF8FF272413
:1008EC000400002070B503210546042004F015FF18
:1008FC000E4E044695B12A4600210C2004F027FF29
:10090C003268536943F08053536144F01002D2B201
:10091C00BDE870400321042004F00CBF3268536919
:10092C0023F08053536100F0EF02F1E70400002044
:10093C0008B504F0EFFF002211462C2004F007FF4D
:10094C00002206212C2004F0F5FE04F045FF0022C5
:10095C000321362004F0EEFE012005F0C6F8F0224B
:10096C000321362004F0E6FE024B1B6800229A7627
:10097C0008BD00BF04000020F8B5364D2B680024DC
:10098C00C3E90A44C3E90C445C749C761C83064698
:10099C0004F0AEFE304B984259D1FFF7C9FF204608
:1009AC0004F03CFF21460422242004F0C3FE1E2048
:1009BC0004F0FCFE2B68C0F3072204465A72042094
:1009CC0004F0F4FEC0B248B1022212212D2004F032
:1009DC00B1FE2A68138B43F48053138306202F68CF
:1009EC0004F0E4FE386007202F6804F0DFFE2B686B
:1009FC00786014F01F040ABF10221C741A74187C3F
:100A0C0004F0DDFFF30716D504F072FF2A68138B90
:100A1C0043F400631383012004F000FF00220A2139
:100A2C002C2004F087FE002104202C6804F04FFEDB
:100A3C0060610020F8BD0521362004F05DFE20F435
:100A4C00007292B20521362004F081FEE3E74FF0EC
:100A5C00FF30EFE7040000203001CADE70B52048FB
:100A6C0003F016FD1F4B186030B91F491F4805F0E5
:100A7C0071F84FF0FF3070BD41F211121C4D1A810C
:100A8C001C4A2A6000245C60936053611362D36239
:100A9C00194803F0FDFC194B186010B9124918489D
:100AAC00E5E72B68174E184D4FF480729A80174A61
:100ABC001A602146FF22304605F00CFEFF2221462B
:100ACC00284605F007FE124B1249134A1E609D6022
:100ADC000B600833136001234B6053602046CAE758
:100AEC00FF700000580300204871000006710000E0
:100AFC007003002074030020207100006C030020A0
:100B0C0026710000700700207106002080841E00F2
:100B1C0048030020A40300206403002008B50A4AFF
:100B2C000A4B13604FF480729A80094A1A600021B4
:100B3C00FF22084805F0CEFDBDE808400648FF221C
:100B4C00002105F0C7BD00BF700300207403002016
:100B5C0080841E00700700207106002008B50B4B26
:100B6C000B4A0C4803F10C0111604FF480721A828D
:100B7C00094ADA600021FF2205F0ACFDBDE808400F
:100B8C000648FF22002105F0A5BD00BF740300201C
:100B9C00700300207007002000127A0071060020FC
:100BAC002DE9F8431F4615460446884604F090FF8D
:100BBC00DFF84090224641460646484605F05FFD68
:100BCC00394609EB04002A4605F059FD0A4B2C4422
:100BDC005C60DC60094B1868094B19688368094A2A
:100BEC001C68094BA047304604F07BFF0020BDE891
:100BFC00F88300BF70070020480300206C0300201E
:100C0C0070030020A4030020640300202DE9F047AA
:100C1C001F4604468946154604F05AFFDFF850A0DB
:100C2C0004EB0508424606460021504605F052FDED
:100C3C0049462246504605F022FD0E4BC3F804806F
:100C4C00C3F80C800C4B18680C4B196883680C4A61
:100C5C00D3F800800B4BC0470B492A462144384639
:100C6C0005F00DFD304604F03CFF0020BDE8F08798
:100C7C0070070020480300206C0300207003002044
:100C8C00A40300206403002071060020014B1860AF
:100C9C00704700BF0800002030B585B0CDE90101D8
:100CAC000446002501A90548039500F0E9F8DDE9A3
:100CBC0002309842B8BF255405B030BD3B5B0000F4
:100CCC002DE9F84FB0F8189019F00808044693462F
:100CDC000DD001290CBF49F0100949F02009A0F8EA
:100CEC0018908BF31188BFF36F8FBDE8F88F09F064
:100CFC000709022907D1204604F046FF0028F0D04E
:100D0C000128238B4ED16769218B002F15DA2568BA
:100D1C0021F00701C4E9008841F00101218300267C
:100D2C00218B01F0070ACA4502D0A368002B5AD1C7
:100D3C000DB9002E71D0002356E001F007035A1FA5
:100D4C00012A1ED821F00701062B256889B2C4E9B7
:100D5C0000880AD13DB1638B2A46126801339BB2DD
:100D6C00002AFAD1638341F002012183204604F06A
:100D7C000BFF06460028D3D0238B43F0200323839C
:100D8C00CDE7042B0CD121F0070189B22183204639
:100D9C0004F0FAFE05460028C1D041F02001218361
:100DAC000025BCE7032809D1226923F00703166844
:100DBC0043F00603238300252F46B1E7042806D110
:100DCC00226923F00703566843F00403F2E7052871
:100DDC0006D1226923F00703966843F00503E9E77F
:100DEC0000252E46E8E7012341F0080121838BF30F
:100DFC001188BFF36F8FFBB985BB16B11F49204615
:100E0C00B0474FF02003EFF3118B83F31188BFF33E
:100E1C006F8F238B23F008032383238BDA0625D5CE
:100E2C0023F0100323830121B4F8189009F007096B
:100E3C0000297FF45EAF54E7A1680029DCD0D1F81B
:100E4C000090D1F804B03B4652462046D847B9F141
:100E5C00000FD1D04946D9F80090F2E729463B461D
:100E6C00524620462D6804F0ABFEC5E713F0200176
:100E7C001EBF23F0200323830221D5E7F95B00007A
:100E8C002DE9F04F91B08B46029092461C460025FE
:100E9C009AF8000008B928465DE325280AF10107F5
:100EAC0007D0029B594698470028C0F2548301355D
:100EBC0012E2182200210AA805F00CFC9AF8013065
:100ECC00252B78D000221046964694461646394675
:100EDC0017F8013B2B2B00F09D8000F29480202B07
:100EEC0000F09B80232B00F09B802EB19DF830608E
:100EFC0046F004068DF83060BCF1000F05D09DF86B
:100F0C00306046F008068DF83060BEF1000F05D059
:100F1C009DF8306046F010068DF8306028B19DF8D1
:100F2C00300040F020008DF830002AB19DF83020C0
:100F3C0042F040028DF830209DF8302002F0440041
:100F4C00442803D16FF386128DF830209DF83020A1
:100F5C002A2B42F080028DF830207BD19DF8312075
:100F6C0042F001024B1C8DF831201A782E2A9DF884
:100F7C0031200CBF0121002161F341028DF8312099
:100F8C0074D15A782A2A6AD0013300210A261846CD
:100F9C0010F8012BA2F13007092F40F28E809DF83A
:100FAC0030200E91C2F3400040EAD17161F341024E
:100FBC008DF830205AE00AF102078DF833309DF895
:100FCC003130D90740F1498154F8049BB9F1000F35
:100FDC0007DA9DF8302042F004028DF83020C9F178
:100FEC0000095A0740F1428154F8048BB8F1000F04
:100FFC0080F241819DF831306FF341038DF831302F
:10100C004FF0FF3837E12D2B0CD0302B7FF46DAF28
:10101C0001225CE74FF0010C59E74FF0010E56E747
:10102C00012054E7012652E70CFB0202303A33460A
:10103C001E4616F8010BA0F13007092FF4D999427E
:10104C0093D09DF830100D92D20F62F341018DF8C0
:10105C0030108AE70B4600224FF00A0CE8E79DF8A7
:10106C00312042F004028DF8312002331F4617F86C
:10107C00012B6C2A41D025D8682A2BD06A2A46D05D
:10108C004C2A4CD01F4617F8012B9DF831308DF8A7
:10109C003320782A00F2D980572A4DD8412A03D020
:1010AC00453A022A00F2D1809DF83230042262F3D4
:1010BC0002038DF8323001239EE006FB012130390A
:1010CC00034664E7742A26D07A2ADBD19DF83130A6
:1010DC0006220DE05A78682A9DF8312006D10121AC
:1010EC0061F3C6028DF831209F1CCCE71346022217
:1010FC0062F3C6038DF83130C5E75A786C2A9DF837
:10110C00312001D10421EBE713460322F0E79DF8CF
:10111C0031300522ECE79DF831300722E8E7BDF8C5
:10112C00303023F4F04323F0020343F4804343F0C4
:10113C000203ADF83030A6E7A2F15801202900F2E5
:10114C00848001A050F821F0191200005712000001
:10115C0057120000571200005712000057120000DF
:10116C00571200005712000057120000B510000073
:10117C005712000019120000D9110000B510000020
:10118C00B5100000B510000057120000D911000076
:10119C00571200005712000057120000571200009F
:1011AC0021120000191200003D120000571200001D
:1011BC00571200003D1200005712000019120000D7
:1011CC005712000057120000191200009DF832103F
:1011DC00012003F0780360F30201402B8DF83210EC
:1011EC0002BF9DF8301041F001018DF83010632AD8
:1011FC0031D1003B18BF01239DF83020C2F34001D0
:10120C000B4363F341028DF83020D8E69DF8321081
:10121C000220DEE79DF8322003F07803A3F14000B2
:10122C00032161F3020243428DF832204341E3E78C
:10123C009DF83220032113F0780F61F302028DF830
:10124C00322014BF01230023D6E79DF8303043F041
:10125C0001038DF830300023CEE79DF93020002AB1
:10126C00B4BFDDF834904FF0FF39BAE69B077FF539
:10127C00C7AEDDF838809DF831100023CDE90D3371
:10128C009DF8323003F00703012BC1F3C30138D1B1
:10129C00CB1E042B22D8DFE803F00309092121001F
:1012AC0054F8043BDA17CDE90A3206E0073424F08F
:1012BC000704F4E80223CDE90A239DF8303013F03B
:1012CC00030654D002983B465246594604F057FD4B
:1012DC000028C0F240810544BA46D9E554F8043BD5
:1012EC0001294FEAE372CDE90A3205D19DF8283085
:1012FC000A9300230B93E0E70229DED1BDF92830D5
:10130C00D0E7022B23D1CB1E042B13D8DFE803F03C
:10131C00030A0A12120022680A920023201D0B9362
:10132C000446CAE7E01D20F00700F0E80223CDE9EF
:10133C000A23F5E754F8043B0A9301294FF0000304
:10134C000B93D3D00229B8D1BDF82830D0E7042BA9
:10135C0007D1073424F00704F4E80223CDE90A236B
:10136C00ABE7032B04BF54F8043B0A93A5E79DF8A5
:10137C0033007828B0D8622822D825283FF491ADC4
:10138C005828A9D10DF126030093DDE90A0104AB1D
:10139C000CAA04F0AEFC8246B8F1000F0DF1260049
:1013AC000CDB9DF83020A0EB0A036FF386129845F6
:1013BC008DF8302002D9A8EB03030D9380463DE055
:1013CC006338152888D801A252F820F0591400006F
:1013DC00BD140000E5120000E5120000E51200004B
:1013EC00E5120000BD140000E5120000E51200003B
:1013FC00E5120000E512000017150000E5140000CE
:10140C00E9140000E5120000E512000031140000A0
:10141C00E5120000E5140000E5120000E5120000E2
:10142C00E5140000B8F1000FDDF828A00ADB4146F6
:10143C00504605F00FF90AEB00080026BAF1000F30
:10144C000CD149E7504605F0FEF8F4E70A9B8DF8FD
:10145C00103000260DF1100A0DF11108A8EB0A034B
:10146C0006B101339DF83220D00668D502335206FE
:10147C000D9948BF0E9A0B4448BF9B18B9F1000F49
:10148C0076DD9DF83020A9EB0309C2F380030393AA
:10149C0053076DD4500661D546B1029B5946304670
:1014AC009847002857DB039B01351E46302356E036
:1014BC001E070FD413F0100618BF2026DDE90A23EF
:1014CC00002BBFF65FAF524263EB4303CDE90A2317
:1014DC002D2657E72B26F1E7002653E70A9840B351
:1014EC000DF1260300930CAA04AB002104F001FCBF
:1014FC00BDF8323003F0EF0343F4F04343F0100334
:10150C008246ADF83230002646E70A9B07293FF6A3
:10151C00E3AEDFE801F00C04060C08080C0C1D709F
:10152C00DAE61D80D8E6EA17C3E90052D4E61D605E
:10153C00D2E6DFF8C8A006460AF105088EE71107C7
:10154C0048BF013393E7184603935946029B9847CB
:10155C000028039B04DA11B0BDE8F08F20234D4422
:10156C004A46002AA5EB090109F1FF39EBDC0D46CF
:10157C0036B1029B5946304698470028EBDB0135C3
:10158C009DF83230D90601D41A0706D5029B59466C
:10159C00302098470028DEDB01359DF83230DB0621
:1015AC0007D59DF83300029B594698470028D2DB9B
:1015BC0001350D9E2E44731B002B16DC02984346FE
:1015CC005246594604F0DBFB0028C4DB0544A94411
:1015DC00A9EB0503002B7FF77FAE029B5946202019
:1015EC0098470028B7DB0135F2E7029B59463020BB
:1015FC0098470028AFDB0135DDE700BF50710000D4
:10160C0030B51049104889B0002205F00CFB0F4D85
:10161C000F4900220023CDE9062300240E23CDE937
:10162C000334CDE901440B4B00944FF4407228462F
:10163C0003F080FD0849284605F0ACFA204609B0B5
:10164C0030BD00BF69160000500100208801002049
:10165C00A00C0020C119000056710000014803F0D5
:10166C00F1BC00BF3001002008B500F067FA094852
:10167C0004F09CFB042328220749084805F096F93E
:10168C00074B084A1A604FF40040BDE8084000F0D0
:10169C009DBC00BFB8030020E01C0020C00300204C
:1016AC000C000020F75D0000F8B50F4BBFF35B8F0B
:1016BC00002553E8007F43E80052002AF9D1BFF31C
:1016CC005B8F0A4C0A4E361B3611B54200DBF8BD57
:1016DC0063685B792BB12368DB6813B1394620460C
:1016EC00984701351034F0E7B0030020686E000015
:1016FC00886E0000064BBFF35B8F53E8002F01325E
:10170C0043E800210029F8D1BFF35B8F704700BF7D
:10171C00B0030020044A054B9B1AB1EBD30F34BF26
:10172C0052F8310000207047286E0000686E0000EF
:10173C00094A4368801A10B50011084C1960013031
:10174C00012218715A71237813B9054803F07AFCF9
:10175C000123237010BD00BF686E00006F080020CD
:10176C003001002070B5114BBFF35B8F53E8005F65
:10177C006A1C43E800210029F8D1BFF35B8F2DB917
:10178C000B4C0C4E361B3611B54200DB70BD237B67
:10179C004BB123685B690BB12046984704220021AA
:1017AC002046FFF7C5FF01351034EDE7B4030020E8
:1017BC00686E0000886E0000164B984237B50446E0
:1017CC0002D3154B984220D314480022002301A9C0
:1017DC0002F0E0FF0546D8B90122019BBFF35B8FF5
:1017EC0053E8001F43E800200028F9D1BFF35B8FBA
:1017FC00019821461F22043004F013FF019C7E2324
:10180C0084F8233084F824500434204603B030BDCF
:10181C00034CFAE7906C000024790000C003002010
:10182C005E71000048B1054B984205D3A033984235
:10183C002CBF00200120704700207047E01C0020C6
:10184C002DE9F04F4D4B1B7885B0044603B960B3BE
:10185C004FF02003EFF3118683F31188BFF36F8FE2
:10186C00474804F0B3FA054686F31188BFF36F8F2F
:10187C0078B1BFF35B8F434B53E8002F013A43E839
:10188C0000210029F8D1BFF35B8F94B1284604F0F6
:10189C00C3FB24B93C4B1B680BB1FFF705FF384861
:1018AC0004F092FA041E18BF0124204605B0BDE8CE
:1018BC00F08F364B1B78E3B92B7ADB0719D404F085
:1018CC00BEFB0746284604F085FB0146384604F06B
:1018DC0090FADFF8BC802F4BDFF8BCB0A3EB080309
:1018EC00DB0803932D4BA3EB080306464FEAD30A00
:1018FC0036B92B4E2B4FBF1B3F114FF000083AE06F
:10190C00B6FA86F1C1F11F094946284604F065FB79
:10191C00254B9842014602D3244A90421AD30846DA
:10192C00FFF780FF0246A8B9214B994212D06B8970
:10193C000399C3F389138B4238BF58F833204FEA0D
:10194C008A1343F00103ADF8003049463B46584634
:10195C0004F0A9FA012303FA09F126EA0106C7E704
:10196C0073685B7923B1336829461B683046984706
:10197C0008F101081036B845F2DB87E76F08002044
:10198C00B8030020AC030020B00300207008002036
:10199C00286E0000686E000078710000386E000040
:1019AC00686E0000886E0000906C000024790000C6
:1019BC005E71000010B5FFF7D5FE03F0EBFA0C4B8F
:1019CC00186030B10B4B1B68092B02DD0A4803F081
:1019DC0039FB094C0020FFF733FF0028FAD14FF0F8
:1019EC00FF324FF0FF33204603F04CFBF2E700BF11
:1019FC00DC030020AC03002030010020294B37B55C
:101A0C001B68418104469847E0604FF02003EFF3D8
:101A1C00118583F31188BFF36F8F2348214604F09F
:101A2C00C9F985F31188BFF36F8FBFF35B8F1F4B21
:101A3C0053E8002F013243E800210029F8D1BFF30D
:101A4C005B8F1B4A127882B14FF02003EFF31184A5
:101A5C0083F31188BFF36F8F0020FFF7F1FE84F33F
:101A6C001188BFF36F8F03B030BD124A1B68126828
:101A7C00002AF8D0012B0AD100220023CDE9002343
:101A8C000D484FF40042002303F070FDEBE70A2BE6
:101A9C00E9D1094805F0D3F8084803B0BDE8304057
:101AAC0003F0D0BA0C000020B8030020AC030020D7
:101ABC0070080020DC0300205001002030010020C1
:101ACC00F8B50E4F3D7875B90D4C0E4EFFF74AFE2A
:101ADC00361B3611B54207DB0020FFF7B1FE00289C
:101AEC00FAD101233B70F8BD63685B791BB12368A5
:101AFC0020461B69984701351034EBE7700800202D
:101B0C00686E0000886E000007B504380190BFF3C2
:101B1C005B8F50E8003F5A1E40E800210029F8D1A5
:101B2C00BFF35B8F012B03D1034801A902F062FEC6
:101B3C0003B05DF804FB00BFC0030020024903485A
:101B4C00C023202204F032BF801D0020E0030020BF
:101B5C0037B50023094D01930120FFF771FE0446B0
:101B6C00FFF7C8FD0022002301A9284602F012FE4F
:101B7C0008B1002CF0D1019803B030BDE003002077
:101B8C0007B50023019307480022002301A902F0A6
:101B9C0001FE10B1FFF7DCFF0190019803B05DF876
:101BAC0004FB00BFE0030020F0B5037A85B0DC072E
:101BBC0001901ED4457A2D091BD00024264601988D
:101BCC00314604F00AFA0746FFF72CFE70B134B91F
:101BDC00019B2946186904F00CF9044648B124FA13
:101BEC0006F3D90702D53846FFF78EFF0136AE4211
:101BFC00E5D3019B1A7A920704D55B69084C0393D1
:101C0C00039B2BB9064801A902F0F4FD05B0F0BD09
:101C1C001D6803A9204602F0EDFD0395F0E700BF17
:101C2C00E00300200EB403B503AB014653F8042BBC
:101C3C0004480193FFF724F902B05DF804EB03B0FC
:101C4C00704700BFF36300002DE9F0471D46089B69
:101C5C001746DA0604460E4605D499064CBF2A49A7
:101C6C002A49FFF7DFFFDFF8A8904FF00008A845DE
:101C7C002ADBDFF8A080DFF8A090DFF894A0002525
:101C8C00BD422FD2725D49462046FFF7CBFF01358E
:101C9C00102D20D12149DFF87880DFF88490204680
:101CAC00FFF7C0FF0025AF4228D9725DA2F12003D7
:101CBC005F2B28BF2E2249462046FFF7B3FF013584
:101CCC00102D14D1BDE8F08749462046FFF7AAFF36
:101CDC0008F10108CBE76A07D2D151462046FFF73D
:101CEC00A1FFCDE741462046FFF79CFFCFE76B07EE
:101CFC00D9D141462046FFF795FFD4E7414620460F
:101D0C00FFF790FFDBE700BFBC710000BB71000068
:101D1C00C6710000C4710000BE710000C8710000E3
:101D2C00CA7100002DE9F04F85B011F00204904605
:101D3C009DF8387006461A4601F0010901F00805B5
:101D4C0006D011F0440F36D13249FFF76BFF044631
:101D5C00B9F1000F0AD0304B304953F82720304BE3
:101D6C003046002A08BF1A46FFF75CFF3DB12D4BE9
:101D7C002D4953F827203046FFF754FF0546B8F19C
:101D8C00000F44D0012303FA07F7284B17F0100F6C
:101D9C00274F18BF1F46BDF840109DF83C00FFF7B9
:101DAC00B9FC394602463046FFF73CFF2844204434
:101DBC0005B0BDE8F08F1F4B196831B31E4B4FF4C3
:101DCC00616C1B68B2FBF3F34FF47A7BB3FBF1F459
:101DDC00B4FBFCF20CFB124C01FB14340BFB04F4B3
:101DEC004FF03C0EB4FBF1FA01FB1A440BFB04F46C
:101DFC00BCFBFEF3B4FBF1F1CDE901A10EFB13C169
:101E0C0000910E49FFF70EFFA1E708469FE7084F28
:101E1C00C1E700BFDB710000206F0000DD76000021
:101E2C00CD710000346F000000720000D77100000B
:101E3C00D2710000FC03002000040020E4710000BB
:101E4C0038B50C46E107054603D5084A0849FFF7A3
:101E5C00E9FEE20608D4A30628464CBF054906490C
:101E6C00BDE83840FFF7DEBE38BD00BFCD710000C5
:101E7C00DD760000BC710000BB7100002DE9F0475D
:101E8C008B7A13F007088AB005460E46174622D007
:101E9C000A7A4989C3F3C203C1F38911D243CDE94C
:101EAC0000830291F36802F001023946FFF73AFF12
:101EBC008146347AE44314F001040ED029463046AE
:101ECC0004F027F9B8F1000F2BD0424639462846CA
:101EDC00FFF7B6FF25E0C146EBE7B8F1000F26D1BE
:101EEC002746EB68069306AA3B46A968304604F0E1
:101EFC00FCF8069A6B681A603AB1AB68134413F895
:101F0C00014CA4F10A035C425C41284604F05EFAE1
:101F1C00069B1F44002BE4D11CB114492846FFF743
:101F2C0081FE28460AB0BDE8F04704F04FBA3046AF
:101F3C0004F085F80E4902462846FFF773FE4FF071
:101F4C00100A05AA234606A93046CDF814A004F0C1
:101F5C00CCF8059A002AB8D04B46009706A928461B
:101F6C00FFF772FE059B1C44EBE700BF06720000F6
:101F7C00DD76000073B542F20F738B4228BF0B461F
:101F8C0005680F4A04460521684603F0F0FD6368B6
:101F9C000C495B6806460422284604F0ADF86368D9
:101FAC003246694628465B6804F0A6F86368064921
:101FBC005B681722284604F09FF802B070BD00BF82
:101FCC004B7800004072000028720000084A10B5DF
:101FDC000123084C13600021A04204D801B1136006
:101FEC00054B186010BD40085B000121F4E700BFF1
:101FFC000004002040420F00FC030020F8B5074FFE
:10200C000D4604464618B44201D12846F8BD38683E
:10201C0014F8011B83685B689847F4E718040020E8
:10202C00014804F0D3B900BF606F00000148FFF70E
:10203C00A1BF00BF606F000008B5034802F028FA8A
:10204C00024B186008BD00BF457200001804002048
:10205C0010B508460C4603F0B0FF054821460E2289
:10206C00FFF70CFF2046BDE8104003F0D5BF00BFC2
:10207C00606F0000014B01221A707047820800202B
:10208C00024B034801221A7004F0A0B98308002007
:10209C00886F00000148FFF76DBF00BF886F00001C
:1020AC0010B508460C4603F088FF054821460E2261
:1020BC00FFF7E4FE2046BDE8104003F0ADBF00BFC3
:1020CC00886F0000054B1B781BB141F2883004F07F
:1020DC005DBDA420002102F043BF00BF8308002097
:1020EC002DE9F047DFF88880DFF888A007460E4618
:1020FC00042498F8003033B94FF0FF324FF0FF331F
:10210C00504602F0A1FB32463946002000F0BEFBDF
:10211C0098F80030814613B9504602F007FC164D72
:10212C00B9F1000F18D001232B7098F8003033B997
:10213C003046BDE8F0875CB92C704FF0FF340020BE
:10214C0000F020FC0028F3D02B78002BF3D1EFE724
:10215C00013CFFF7B7FFF2E72B7813B1013C04D138
:10216C002C702B78002BC4D1E2E7FFF7ABFFF8E71C
:10217C00830800201C01002082080020F8B50546C9
:10218C004FF02003EFF3118683F31188BFF36F8FA9
:10219C00094B1C685CB1094FD4E90132002D08BF12
:1021AC0013460BB1387898472468002CF4D186F389
:1021BC001188BFF36F8FF8BD300400203804002065
:1021CC00084B10B51C685CB901221A60064B93E8E9
:1021DC00030004F0BAFA2046BDE81040FFF7CEBF6A
:1021EC0010BD00BF100000203804002037B56D462C
:1021FC000146284604F012F995E803000B4C84E8DC
:10220C000300207880B10A4B00221A6002F028FCEF
:10221C000120FFF7B3FF94E8030004F083FAFFF703
:10222C00CFFF02F0D3FC207803B030BD380400207F
:10223C001000002010B50748074C02F029F9074B95
:10224C001860204601F00AF82046FEF71FFD00201A
:10225C0010BD00BF457200006D220000400400203C
:10226C000A2838B5074D044604D1286883680D2127
:10227C005B68984728688368E1B25B68984720469A
:10228C0038BD00BF4004002010B5044C2046FEF7BA
:10229C00FDFC204600F0E2FF002010BDAD22000046
:1022AC002DE9F341DFF85C80174E8DF807000446EA
:1022BC0003254FF0FF334FF0FF32404602F0C4FAD3
:1022CC0001220DF10701002000F02CFB07464046CF
:1022DC0002F02CFB2FB101233370204602B0BDE875
:1022EC00F0813378002BF8D0013D08D004F048FC85
:1022FC000028DED10021422002F032FED9E73570F1
:10230C00EBE700BF1C01002084080020084B70B5CF
:10231C00C31A0D4607499B100446594306484022F0
:10232C0004F09CF82B4601462046BDE87040184747
:10233C0058040020B76DDBB6A400002073B50C4C1C
:10234C000C4A4023041B00930D460B460A49A4106B
:10235C0061430646094804F0AEF8011E05DA304622
:10236C002B4602B0BDE87040184702B070BD00BFEC
:10237C005804002031650000B76DDBB6A4000020C6
:10238C00002270B501210446104600F071FB0020BC
:10239C0000F050FB0F4801F0E3FD0F4B984215D1B4
:1023AC0004F0ADFA26690D49304603F03CFC0028D8
:1023BC000BDB246909490125356404F11C0003F089
:1023CC0032FC002801DBE564002070BD6FF00400D6
:1023DC00FBE700BF212400000000AD0BC46F000020
:1023EC0001460C2309484B4370B5C418D4E90E566A
:1023FC0000224033A263184404F01DF82DB132467C
:10240C002B460348BDE87040184770BD58040020A7
:10241C00A400002010B1012804D07047034B1B6CA2
:10242C005B0701D1FFF7DCBF704700BF58040020E9
:10243C0008B54FF02003EFF3118183F31188BFF33C
:10244C006F8F124A136843F0020013F001031060FF
:10245C000CD04FF08042D2F80C34D2F80C2413F08C
:10246C00010303D00A4803F0E6FF012381F311882E
:10247C00BFF36F8F23B1BDE808400020FFF7B0BF5A
:10248C00BDE80840012001F07BBD00BFA80400207E
:10249C00980400201FB500220123CDE90223094A2C
:1024AC00CDF800D06B46CDF804D004F034F80028F9
:1024BC0005DB4FF480420023684602F0E3FD05B0D3
:1024CC005DF804FB4965000010B5074C23782BB967
:1024DC004FF4A57004F05AFB01232370BDE81040A3
:1024EC00002001F04DBD00BF85080020094BBFF353
:1024FC005B8F53E8002F22F0020143E80010002804
:10250C00F7D1BFF35B8FD30702D4012001F080BD5C
:10251C00704700BFA80400202DE9F0413949BFF3F2
:10252C005B8F0746012251E8003F41E8002000285C
:10253C00F9D1BFF35B8F33B9334934484B60CB606F
:10254C008A6003F083FB7B1E012B2FD8012F07D150
:10255C004FF08043D3F81C3403F00303012B25D038
:10256C0004F00EFB044618B9294B1B78002B41D103
:10257C004FF02003EFF3118683F31188BFF36F8FB5
:10258C000124DFF890804FF08045D5F81834D5F849
:10259C001824D2030CD503F00303012B01D0012F17
:1025AC0006D10CB386F31188BFF36F8FBDE8F081B1
:1025BC00ACB1304600F0BCFAD5F81835002BE4D19C
:1025CC00D5F80421002AE0D0C5F80431D5F804313F
:1025DC000123C5F81835C8F88031AB60D5E7002168
:1025EC00212002F0BDFCE7E74FF080430222C3F844
:1025FC000423DBE74FF080430222C3F8082306468E
:10260C00BFE700BFAC040020480400207404002085
:10261C00980C002000E100E0044A1368C81A20F06E
:10262C007F400344136002F003BF00BFC0040020CE
:10263C002DE9F843860006F1804600F1500406F5BA
:10264C008836A400A4B204F180444FF48037D6F845
:10265C004035DFF86C8021F07F4504F588348740E5
:10266C00D8F80495A3EB090323F07F4329F07F42AC
:10267C00012BC6F8402502D1132004F087FA09F18A
:10268C000202AB1A23F07F43B3F5000F88BF154647
:10269C00002323602368C8F8447325F07F43C6F8F1
:1026AC004035D8F80435994506D0EB1A023B23F097
:1026BC007F43B3F5000F01D8BDE8F8832B46CFE775
:1026CC0000100140F8B50025104C2F46104B1E6829
:1026DC0005B1F8BDD4F80423D203FAD5D4F84021BF
:1026EC00002AF6D0C4F84051D4F840214FF480327F
:1026FC00C4F84823D4F84015012526B15A681F6048
:10270C000020B047E2E71E60E3E700BF0010014085
:10271C00B404002038B50F4C00254FF48033C4F8B6
:10272C000855C4F804330C4B4FF40032C3F8802125
:10273C0001212A46112000F09BF9112000F07AF9B2
:10274C000123064AA360022023601360FFF7E4FE16
:10275C00284638BD0010014000E100E0BC04002018
:10276C00134AB0F1FF3F14BF03461346013B002B45
:10277C001CDD9342A8BF13460E4AD2F804050E4A3C
:10278C001168401A10F4000F20F07F4218BF00238C
:10279C0001321344094A0A48106000205060044A70
:1027AC00934294BFC9188918FFF742BF0023E3E78F
:1027BC00FFFF7F0000100140C0040020B404002083
:1027CC00252600004FF02002EFF3118382F31188CD
:1027DC00BFF36F8F064AD2F80405064A1268801AB6
:1027EC0020F07F4083F31188BFF36F8F704700BFD9
:1027FC0000100140C00400204FF02003EFF31182C1
:10280C0083F31188BFF36F8F0649074B0868D3F821
:10281C00043582F31188BFF36F8F1B1A23F07F43AB
:10282C0018447047C00400200010014010B5114C32
:10283C00114AA2610323C4E90433104BE3612266FD
:10284C004FF480630E4A0F49236262660023102204
:10285C00E01DA3626362E3622367E3666367A266BB
:10286C0003F0D5FE0849204603F0D1FE2023A371C6
:10287C0010BD00BFC40400209D720000960800200B
:10288C0086080020A6720000AA7200002DE9F84FFD
:10289C00234F4FF0180B14460BFB00720646936A3D
:1028AC00556AAB42884634D8D2F820A0AAEB050969
:1028BC0009F1FF32944211D84FF0180906FB099325
:1028CC003B44224658684146284403F0D8FE09FB95
:1028DC0006762C4474620120BDE8F88F13449C42A8
:1028EC001BD800FB0BBBBB444A46DBF804002C4452
:1028FC00284403F0C4FEB4EB0A0406D0DBF8040051
:10290C00224608EB090103F0BAFE182000FB0676FC
:10291C00E0E7013B5B1BA342CED20020DCE700BF0B
:10292C00C404002070B5164B182400FB04451D444C
:10293C0004FB00331646DC6A012C0ED0022C18D096
:10294C00E4B9284603F0FFFD864204D832462846F7
:10295C0003F002FE3446204670BD284603F0F3FD1A
:10296C008642344628BF04462246284603F0F4FD2E
:10297C00F1E72846BDE8704003F00ABE0024EAE700
:10298C00C4040020034B182202FB00339A6A586AD5
:10299C00801A7047C4040020094A0A4993680968E0
:1029AC009967094958674B6843F080534B60002383
:1029BC0083F31188BFF36F8F9368986F704700BFD4
:1029CC00180600207470000000ED00E00F498A68C2
:1029DC004FF030001044EFF3098C80E8F01F2020FA
:1029EC0080F31188BFF36F8F094F4FF000664A6A6E
:1029FC008A603E60506F0023536780F3118802F1A8
:102A0C00300090E8F01F8CF30988704718060020FE
:102A1C0004ED00E01EF0040F0CBFEFF30880EFF3A1
:102A2C000980816911F8021C0229FFD001B503F05D
:102A3C00E3FD01BD43B2002B08DB012200F01F00B7
:102A4C0002FA00F05B09024A42F82300704700BF0B
:102A5C0000E100E0054B420900F01F0053F8222072
:102A6C00012303FA00F01040704700BF00E100E0C2
:102A7C0043B2002BA8BF03F1604301F10101B8BFC1
:102A8C00064B4FEA4111ACBF03F5614300F00F0058
:102A9C00C9B2B4BF195483F80013704714ED00E0A9
:102AAC0042F8203C009B42F81C3C0A49019B42F82E
:102ABC00183C029B42F8143C21F001014FF080734A
:102ACC0042F8043C42F8081C0023203A0265436794
:102ADC00704700BFEB5C000008B506460D46144677
:102AEC0000F000FB074B9E60204685F3098800210F
:102AFC0063B681F31188BFF36F8F0022002303F0BC
:102B0C00EEF800BF18060020014910220A60704739
:102B1C0010ED00E072B6404080F31188BFF36F8F68
:102B2C00BFF34F8F30BF62B6BFF36F8F704700BFDC
:102B3C0072B6494081F3118820BF80F3118862B6C8
:102B4C00704700BF73B506460C4601B3134B144DCA
:102B5C001448ED1AED08AD0145F00105ADF8005033
:102B6C00D1E90123096803F09EF9ADF80050D4E9CE
:102B7C000423E1680C4803F096F9E1690B482A46F6
:102B8C0003F064F9A1690A482A4603F05FF921466B
:102B9C00304602B0BDE8704001F0BCBC286E0000AD
:102BAC00486E0000B1720000E07200000F7300006C
:102BBC001E73000030BFFFF7FDBF00BF0E4A08B503
:102BCC000E4B22F07F029A60BFF34F8FBFF36F8FD3
:102BDC00D3F8882022F47002C3F88820EFF3148312
:102BEC0023F0040383F3148801F008FD02F036FB94
:102BFC0000F05AFA01F026FD0000000000ED00E0A4
:102C0C0001B572B60B4A106A00281EBF0021116272
:102C1C0003F0C5FE62B6EFF30580A0F110004FEA99
:102C2C00C0000549014409C99847BDE80140034962
:102C3C000847000018060020F06C000099300000D6
:102C4C0003F06EFD202080F3118808484FF40061DA
:102C5C00401880F30988EFF314800221084380F3B5
:102C6C001488BFF36F8FFFF7A9FF0000E01400205A
:102C7C00EFF30880EFF3098101B5724600F034F9E7
:102C8C0001BD00BF70B5234B234C244D2448E41ADE
:102C9C00E408A40144F00106314603F0CAF8AB6A1B
:102CAC009B0103D51F48314603F0C3F8AB6ADD0125
:102CBC0004D51D4844F0010103F0BBF8174DAB6A75
:102CCC00180304D5194844F0010103F0B2F8AB6ABB
:102CDC00590304D5164844F0010103F0AAF80F4D2E
:102CEC00AB6A9A0304D5134844F0010103F0A1F830
:102CFC00AB6ADB0304D5104844F0010103F099F8EA
:102D0C00064A936A6FEA03436FEA13439362002007
:102D1C0070BD00BF286E0000486E000000ED00E0A2
:102D2C004C73000064730000777300009173000013
:102D3C00AF730000D4730000EE7300002DE9F04176
:102D4C002A4B2B4C2B4DE41AE408A40144F0010847
:102D5C0007460E462848414603F06BF8AB6AD90487
:102D6C0003D52648414603F064F8AB6A1A0504D52E
:102D7C00234844F0010103F05CF81E4DAB6A9B053F
:102D8C0012D544F001081F48414603F052F8A96BD4
:102D9C00AB6A180408D51C48424603F057F81FB11B
:102DAC00AB6A23F40043AB62124DAB6A590504D5F0
:102DBC00164844F0010103F03CF8AB6ADA050DD576
:102DCC00134844F0010103F034F80A4A936A0020D6
:102DDC0043F47F4393623070BDE8F081AB6A9B048F
:102DEC00F3D50C4844F00101EDE700BF286E00005C
:102DFC00486E000000ED00E0197400002F74000014
:102E0C0040740000537400006C7400008174000066
:102E1C009C740000B47400002DE9F041284B294C3F
:102E2C00294DE41AE408A40144F0010807460E46B3
:102E3C002648414602F0FDFFAB6AD80603D524486C
:102E4C00414602F0F6FFAB6A190704D5214844F05D
:102E5C00010102F0EEFF1C4DAB6A9A0712D544F04B
:102E6C00010841461C4802F0E4FF696BAB6A1B0683
:102E7C0008D51A48424602F0E9FF1FB1AB6A23F0AD
:102E8C008003AB62104DAB6AD80704D5144844F0EC
:102E9C00010102F0CEFFAB6A990604D5114844F04B
:102EAC00010102F0C6FF084B9A6AD20658BF9A6A13
:102EBC009A6A002042F0FF029A623070BDE8F081FD
:102ECC00286E0000486E000000ED00E0E374000086
:102EDC00F9740000407400002C750000447500006B
:102EEC005A750000B47400002DE9F043584B5E682D
:102EFC008BB00F46C6F30804002585F31188BFF389
:102F0C006F8F02F07F43B3F17F4F0DD102F00C03B2
:102F1C00082B0BD14F49504B5048C91AC90889018D
:102F2C0041F0010102F085FF2F4603E0120701D4A6
:102F3C000746012500238DF80730E31E092B6DD8B9
:102F4C00DFE803F0055B5F3F6C6C6C6C6C63424BB1
:102F5C00404EDFF8FC804248F61AF608B60146F0FF
:102F6C000106314602F065FFD8F82C404FF00009FD
:102F7C0014F002048DF8079005D03A48314602F05F
:102F8C0058FF002420E0D8F82C305B001CD53648C4
:102F9C00314602F04EFF98F828302BB10DF10701A5
:102FAC000120FFF739FF0EE098F829302BB10DF115
:102FBC0007010120FFF7C2FE05E0B8F82A309BB2EA
:102FCC0013B1FFF75FFE04469DF8073093B920223A
:102FDC00394602A803F053FB099B9DB3C3F30802C7
:102FEC0022B96FEA53236FEA4323099302A92046BF
:102FFC00FFF7A8FD0BB0BDE8F0830DF10701002031
:10300C00CFE70DF107010020D4E71249124B174806
:10301C00C91AC908890141F00101B0E70E4A0D4BEC
:10302C00134814499B1ADB0816F4F87F4FEA8313F4
:10303C0018BF014643F001030F48A4F1100202F03F
:10304C0019FF9EE723F4FF7323F00103CDE700BFC4
:10305C0000ED00E0486E0000286E0000797500005D
:10306C00A4750000BB750000DC750000FB7500004A
:10307C00347600001F7600004D760000024A53693A
:10308C0043F010035361704700ED00E0044B996866
:10309C00586A884203D003494FF080520A60704747
:1030AC001806002004ED00E0044800232021C2187B
:1030BC000133272B82F80013F9D1704700E100E0AF
:1030CC00064B9B68834207D1EFF3058323B1044A77
:1030DC00536843F08053536001F062BF1806002020
:1030EC0000ED00E0024B034A0348012100F0ACB8AC
:1030FC000000012000000020D06F0000F8B52A4F1E
:10310C000E460021B14214DA4468002C48D0C3B1F9
:10311C0004F1FF3C14EA0C0F0DD0244A244B254833
:10312C00D21AD208920142F0010202F08FFE6FF027
:10313C0015021046F8BD1F2CEFD905681CEA050FC7
:10314C00EBD1202CD5B2D0F808C0026816D9B4F156
:10315C00004F15D8013CB4FA84F4C4F11F04640088
:10316C00072D4CEA04040DD9104A114B1248D21AFF
:10317C00D208920142F001022946D6E70824EFE773
:10318C003E24EDE722F01F022A4342F0100244F0E5
:10319C000104C7F89850C7F89C20C7F8A0406A1CD7
:1031AC0001310C30AEE700BF00ED00E0406E0000D6
:1031BC00286E00006476000087760000044B052220
:1031CC00C3F89420BFF34F8FBFF36F8F704700BFCE
:1031DC0000ED00E0BFF35F8F024B0022C3F8942098
:1031EC00704700BF00ED00E014490868082810B5CE
:1031FC0021D8FFF7EFFF124C49680022904201F1F1
:10320C000C0105D10F4B1870FFF7D8FF002010BD33
:10321C00C4F8982051F80C3C23F01F03134343F0DF
:10322C001003C4F89C3051F8043C43F00103C4F87B
:10323C00A0300132E2E74FF0FF30E8E7DC6F00002E
:10324C0000ED00E0960C002010B5034C0123227811
:10325C00FFF754FF207010BD960C0020014B186036
:10326C00704700BF140000204FF02003EFF31182D1
:10327C0083F31188BFF36F8F06490123C1F84035E2
:10328C004FF08041C1F8783582F31188BFF36F8F0E
:10329C000020704700E0014020B1034B800143F057
:1032AC0001031847704700BFC06E000008B5094BFA
:1032BC001A786AB90121197006200521FFF7D8FB8D
:1032CC000620FFF7B7FB044B4FF00042C3F8042372
:1032DC00002008BD970C002000600040F7B5174691
:1032EC0042680669127A01F01F04B7F5A03F0D463B
:1032FC0044EA42140CD104F01F0202F5E0724FF0C4
:10330C00A04151F82220D00707D56FF022009AE097
:10331C00B7F5005FF16800F09880F2680121A940D0
:10332C0011437269F1600121A940B7F5A03F0CBFB0
:10333C000A438A437261B269B3F5C02F0CBF0A43CA
:10334C008A43B2613269B3F5802F0CBF114322EA74
:10335C0001014A4A3161D2F804330020DBB200F596
:10336C00A27152F82110C1F304218C4272D123FABC
:10337C0000F1C9076ED5830003F1804303F5C04308
:10338C00D3F8101521F00101C3F810150123834067
:10339C00C2F80833C0B200F0ABFE2046002103F0A7
:1033AC00DFF9F068E84010F001004CD07069E8409B
:1033BC0010F0010255D0B369EB40DB075FBF3169F8
:1033CC0021FA05F505F00105C5F102050DF107001F
:1033DC0054BFEDB2032500F0ABFE294B98423DD112
:1033EC009DF80720930003F1804303F5C0432402AA
:1033FC00D3F8101521F4473121F44071C3F810159E
:10340C00D3F8101504F4F8540C4344EA0545C3F8FA
:10341C001055930003F1804303F5C243002018605C
:10342C009DF807101B688B0003F1804303F5C04324
:10343C00D3F8102542F00102C3F810250F4A0123DE
:10344C008B40C2F8043303B0F0BD0122AA4021EA3C
:10345C00020166E70130082881D19EE76FF0120067
:10346C00F1E73169E94001F00101C1F103012046A6
:10347C00C9B203F075F91046E5E700BF00600040E3
:10348C000000AD0B2A4B70B546682A4813408342A6
:10349C003ED00DD8062B15D005D89BB1022B39D0B8
:1034AC006FF0150033E0B3F5801FF9D1012309E06B
:1034BC002148834230D0B3F5A00F2FD0B3F5800F45
:1034CC00EED10223D00654BFC2F34015032582F47B
:1034DC00807412F4007FC2F34020C4F3002407D0A0
:1034EC0012F4006F76681BD001228A40C6F80825BA
:1034FC0040EA440201F01F0142EA032301F5E071A6
:10350C004FF0A04243EA850342F82130002070BD01
:10351C000723D7E70423D5E70523D3E70323D1E714
:10352C00520542BF01228A40C6F80C25E0E700BFD5
:10353C000600F00006001000020040002DE9F843E0
:10354C00414BD3F87C51002D59D0404B4FF0A04942
:10355C00D3E90521DF68D9F810451B690A4327EA2E
:10356C0002075C4027EA04043A4601264FF00008A3
:10357C0082BB354BC3F87C21D3F87C31344A3248BA
:10358C00002301261F46D0F8041306FA03FC1CEA9C
:10359C00010F0CD0116851B103F5A27150F8211034
:1035AC001760C1F3042106FA01F10C4311680133D1
:1035BC00082B02F10402E6D11CBB4DB1234ED6E917
:1035CC000531F2680B4322EA0302012400254ABBB1
:1035DC00BDE8F88316420ED03E4208F01F0008BF2B
:1035EC0000F5E0734FF0000108BF59F8233003F0E9
:1035FC00B7F822EA060208F101087600B8E72C4673
:10360C00BCE7124B59680029D7D00E68114F8A6855
:10361C00224002D04B6838469847002ECDD0314618
:10362C003668F4E714420CD03169E94001F001012D
:10363C00C1F10301C9B205F01F0003F091F822EAB1
:10364C00040201356400C2E70060004070050020F0
:10365C0000610040EC00002038B504460022012136
:10366C000420FFF705FA23696068DC640D4A00F159
:10367C00080100F095FD0C4B984211D00B4B0C4AF5
:10368C0021680C48D21AD208920142F0010202F0D1
:10369C00DDFB6FF00F05206903F0F6F8284638BD06
:1036AC000025F8E7413700000000AD0B286E000044
:1036BC00606E0000C076000030B505692A6CAB6CFA
:1036CC0085B082B973BB1C4600221146284603F014
:1036DC00B6F8AC6205F1180001F0B4FC002385F8D3
:1036EC00543005B030BD114613B19A4228BF19466B
:1036FC00EC6B29650094BCB1002A18BF0A460192F4
:10370C006A6C029292B1002B18BF0B46406803936F
:10371C000022694600F0E8FD054B9842E1D06FF0BD
:10372C000404D1E71946E3E72246E8E71346EDE740
:10373C000000AD0B10B503780C46002B4ED10B6C72
:10374C0063B10A6D9A421DD92549264B2648C91AE0
:10375C00C908890141F0010102F06BFBA36C63B154
:10376C00226D9A4224D91E491E4B1F48C91AC908FA
:10377C00890141F0010102F05CFBE06CBDE81040F6
:10378C00FFF79ABF9B1A0B6463B90B6B013B0B637E
:10379C0063B1CB6A03F10802CA629A68DB68CA6338
:1037AC000B64DBE7CB6B002BD8D01344E363D5E77A
:1037BC009B1AA36463B9A36B013BA36363B1636BF3
:1037CC0003F1080262639A68DB686264A364D4E75D
:1037DC00636C002BD1D013446364CEE710BD00BFE3
:1037EC00606E0000286E0000E07600002DE9F74FB7
:1037FC001E468B8804695B0480460D4617462DD403
:10380C004FF0FF324FF0FF3304F1080001F03AFCA7
:10381C006560D8F8102013689D4200F0B280AB8828
:10382C00D80722D5834A844BD8F800108348D21A83
:10383C00D208920142F0010202F008FB6FF015056C
:10384C0023689B8813F4804304D1636004F108005F
:10385C0001F0F8FB284603B0BDE8F08F2369002B7C
:10386C00CED163689942CBD1D3E719070AD57149F8
:10387C00714B7348C91AC908890141F0010102F062
:10388C00D8FADBE713F4C05F08D06A496A4B6D487D
:10389C00C91AC908890141F00101F0E7C3F34513C6
:1038AC00082B08D06349644B6748C91AC9088901B9
:1038BC0041F00101E3E72968644B994208D85D495E
:1038CC005D4B6348C91AC908890141F00101D6E76B
:1038DC00AB68D8F804901560002B7CD018680028D1
:1038EC0079D093F809A0197AD0F810B01AF0010F1A
:1038FC000CBF4AF4B05A8AF4D05A836801911B6801
:10390C002AF48052984760B90199DBF80030012203
:10391C0002FA01F11AF0010F14BF0B438B43CBF8E1
:10392C000030A988D9F80020880701F004035DD580
:10393C00002B14BF03230223022BC1F3001159D017
:10394C00032B5AD0012B01D141F00201414BC2F89B
:10395C0054152968994253D93F4B994253D93F4B3F
:10396C00994253D93E4B994253D93E4B994253D924
:10397C003D4B994234BF4FF080414FF00041C2F8AB
:10398C002415012384F85430002F48D03B687A6802
:10399C00E36222631A685B68E2632364002E43D0FF
:1039AC00336872686363A2631A685B686264A364B9
:1039BC000022A2620121204602F041FF4046FFF79F
:1039CC007BFE4FF0FF324FF0FF3304F1180001F093
:1039DC0059FBA56A34E7184B16492448C91AC9087B
:1039EC00890141F0030102F024FA9AE7003B18BF69
:1039FC000123A1E741F00401A8E741F00601A5E786
:103A0C004FF00071BBE74FF08061B8E74FF00061F9
:103A1C00B5E74FF08051B2E74FF00051AFE7C4E982
:103A2C000B77C4E90F77B9E7C4E90D66C4E91166F1
:103A3C00BEE700BF606E0000286E0000FE7600003E
:103A4C00207700003F7700006277000047E8010014
:103A5C00917700008FD003001FA107003F420F0099
:103A6C007F841E00FF083D0000127A00C277000020
:103A7C00074BD3F8082142B10020C3F80801D3F852
:103A8C000821D3F818350B7070474FF0FF30704792
:103A9C0000200040024BD3F88004C3F88004704728
:103AAC000020004010B54B79012B1CD18B79032BD6
:103ABC0019D1CB79BBB90A7912B1022A13D10E22D2
:103ACC000B68B3F5164F5ED02BD8B3F5165F5CD0F0
:103ADC0014D8B3F5966F5AD008D8B3F5967F59D051
:103AEC00B3F5167F59D06FF022004BE0B3F5166F8B
:103AFC0056D0B3F5965FF6D1334B39E0B3F5E14FC1
:103B0C0051D007D8B3F5615F4FD0B3F5964FEAD1DA
:103B1C002E4B2DE047F61224A342E4D14FF40003C0
:103B2C0026E0B3F5613F43D011D8B3F5963F41D0B1
:103B3C0008D84DF6C024A3423ED0B3F5614FD2D184
:103B4C00234B15E0B3F5E13FCDD1224B10E0B3F59B
:103B5C00612F34D007D8204CA34232D0B3F5E12FDB
:103B6C00C1D11E4B04E01E4CA342BCD14FF080537C
:103B7C001C4CC4F82435C4F86C25036903C983E8CC
:103B8C000300002010BD184BF2E7184BF0E74FF480
:103B9C009E23EDE74FF4A033EAE74FF41C33E7E73D
:103BAC004FF41D23E4E7124BE2E74FF46C13DFE70D
:103BBC00104BDDE7104BDBE74FF46503D8E70F4BF9
:103BCC00D6E74FF08063D3E700B0130000A04E009F
:103BDC0000F0EB0000E0D70190D0030000705F070D
:103BEC0040420F000020004000509D000050270074
:103BFC0000F0750000B0AF0300903A0100D0BE0E8B
:103C0C0010B54FF0A043134C00222021C4F800251E
:103C1C00C3F808150321C3F81417C3F82C270B237A
:103C2C00C4F814350523C4F80C354FF0FF33C4F831
:103C3C0008350169C4F81035FFF734FF40B9042387
:103C4C00C4F80035C4F80801D4F808310123236006
:103C5C0010BD00BF00200040F8B50E4602F090FFEA
:103C6C001A4D78BB64240127BFF35B8F55E8003FE6
:103C7C00002B03D145E80072002AF7D1BFF35B8F0C
:103C8C0007D021200021013C01F06AF914F0FF0457
:103C9C00EAD10F4C0023C4F81C31D4F81C31012399
:103CAC00A360C4F81C654FF47A76D4F81C3123B9A0
:103CBC00012002F022FE013EF7D10123E360002334
:103CCC002B60F8BD01232B60E3E700BF94050020B7
:103CDC00002000404FF0704393F8E02F062A09D1E2
:103CEC00D3F8E83FC3F30313033B032B02D8024A78
:103CFC00D05C704700207047FD770000024AD2F874
:103D0C000034002BFBD0704700E0014010B502F0EE
:103D1C00E5FD40B14FF08053844AD3F82433C3F30C
:103D2C000423C2F84035FFF7D5FF10B1804B814A10
:103D3C005A6702F0D3FD48B14FF080534FF08042E8
:103D4C00D3F84432C3F34233C2F83C35FFF7C2FF19
:103D5C0030B1794AD2F8FC3023F08073C2F8FC30D1
:103D6C0002F0BCFD40B14FF080430022C3F80C219F
:103D7C00C3F81021C3F83825FFF7ACFF20B14FF082
:103D8C0080430322C3F8A025FFF7A4FF60B16B4B5F
:103D9C000522C3F810260122C3F888260022C3F896
:103DAC0018263F22C3F814264FF08053D3F8302145
:103DBC00511C09BF4FF07043D3F8343193F8E02F06
:103DCC00D3F8E83F08BFC3F30313062A4DD1033BD6
:103DDC00032B03D85A4AD35C002B46D04FF08052A9
:103DEC00584BD2F80414C3F82015D2F80814C3F8B1
:103DFC002415D2F80C14C3F82815D2F81014C3F8F3
:103E0C002C15D2F81414C3F83015D2F81814C3F8C2
:103E1C003415D2F81C14C3F84015D2F82014C3F88A
:103E2C004415D2F82414C3F84815D2F82814C3F852
:103E3C004C15D2F82C14C3F85015D2F83014C3F822
:103E4C005415D2F83414C3F86015D2F83814C3F8EA
:103E5C006415D2F83C14C3F86815D2F84014C3F8B2
:103E6C006C15D2F84424C3F8702502F037FD48B124
:103E7C004FF080534FF08042D3F8583203F04F0389
:103E8C00C2F8E43E02F02AFD48B14FF08043D3F86B
:103E9C000024D20744BF6FF00102C3F800244FF096
:103EAC008053D3F83021062A0ED1D3F83431033B9A
:103EBC00032B02D8244AD35C33B1244AD2F83C37C2
:103ECC0043F48063C2F83C374FF01023D3F8002240
:103EDC00002A03DBD3F80432002B22DA1C4901231D
:103EEC004FF01020C1F804351524FFF707FFC0F878
:103EFC000042FFF703FFC0F80442FFF7FFFE002368
:103F0C00C1F80435FFF7FAFEBFF34F8F0A49114B86
:103F1C00CA6802F4E0621343CB60BFF34F8F00BF5B
:103F2C00FDE70D4B0D4A1A6010BD00BF003001407B
:103F3C0000C007400DF0ADBA00ED00E000500040AD
:103F4C00F577000000C00040F97700000010004039
:103F5C0000E001400400FA05780000200090D00336
:103F6C00044B1A7922B9012218609A8002487047D2
:103F7C0002487047980500200000AD0B0C00AD0BFB
:103F8C0030B510B1012834D030BD4FF08043D3F898
:103F9C001824D3F81814C90329D502F00302012AF6
:103FAC0025D1C3F818254FF080430022C3F8042113
:103FBC00D3F804210222C3F80423134AD2F8FC00DC
:103FCC0040F08073C2F8FC30104B1C6844F00101C7
:103FDC0019605D685968491BB1F50A5FFAD31C601A
:103FEC004FF08043C2F8FC0001229A60CCE700221B
:103FFC00D7E74FF080430022C3F80021D3F800210B
:10400C00C3F804031860BFE700ED00E0001000E007
:10401C0038B510B1012817D038BD4FF080440223B9
:10402C00C4F80833C4F80401D4F804310123E36064
:10403C0042F21075D4F81834DB03EDD5012002F0F0
:10404C005CFC013DF6D1E7E74FF080440023C4F857
:10405C000803C4F80031D4F80031606042F21075E6
:10406C00D4F80C34D4F80C24D20303F0010305D596
:10407C0023B1012002F041FC013DF1D1014B0022A2
:10408C005A71C9E7980500204FF0804310B5D3F85A
:10409C0000216AB10022C3F80021D3F800210122CB
:1040AC00C3F80823114B587910B95A711B689847FB
:1040BC004FF08043D3F8042172B10022C3F80421DD
:1040CC00D3F80421D3F81824D3F81814920704D188
:1040DC000122C3F818259A6010BD0222C3F80823E8
:1040EC00024BBDE810401B680120184798050020C2
:1040FC00012303FA00F0C3B293B14FF02003EFF3A6
:10410C00118183F31188BFF36F8F064AD36C23EAB6
:10411C000000D06481F31188BFF36F8F02487047A1
:10412C0002487047A00500200000AD0B0400AD0B49
:10413C002DE9F0410546DFF85CE01748DFF85C80BC
:10414C000024FF220126E3B24FF02001EFF3118C83
:10415C0081F31188BFF36F8F22FA03F1C9070AD5D7
:10416C00DEF84C1006FA03F7394201BF3943CEF89A
:10417C004C1040462B708CF31188BFF36F8F404569
:10418C0005D006FA03F39A4304F10104DBD1BDE830
:10419C00F08100BFA00500200200AD0B0000AD0BAC
:1041AC002DE9F04706794D4C28257543671997F88A
:1041BC001CC0BCF1000F40F08F8062517B6091F805
:1041CC0000E00F7B0EF01F054FF0010C0CFA05FC04
:1041DC004FF0A04305F5E0754FF00108012F94BF97
:1041EC00C3F80CC5C3F808C543F825804D78FF2DDE
:1041FC001FBF05F01F0C08FA0CF80CF5E07CC3F897
:10420C000C851CBF4FF0030843F82C808B7808BF3B
:10421C004FF0FF35FF2B1FBF91F80E8003F01F0CE2
:10422C000CF5E07C4FF0A0491CBF4FEA880849F818
:10423C002C8091F8038008BF4FF0FF33B8F1FF0FCB
:10424C000FD008F01F0C4FF0A04A4FF0010909FAEB
:10425C000CF90CF5E07CCAF808954FF003094AF804
:10426C002C904FF0280C0CFB064C8CF81E80006830
:10427C00C0F808E5C0F80C55C0F810358B68C0F8CC
:10428C0024354B7B003B18BF0123022F1ED0032F7C
:10429C001FD0012F01D143F00203C0F8543528235D
:1042AC0003FB06434979D9770123C0F800351AB1CD
:1042BC0040F30730FEF7BEFB282303FB0644002324
:1042CC006377074801232377BDE8F08743F00403A5
:1042DC00E3E743F00603E0E70248F5E7F0050020CA
:1042EC000000AD0B0500AD0B2DE9F8430779414DEE
:1042FC0028237B439446EA180E46517F86460029B4
:10430C0075D155F80380B8F1000F01D00123537714
:10431C0096E80F00282404FB075404F10C0989E8E3
:10432C000F00002384F82430A37FFF2B08D0012238
:10433C0003F01F0302FA03F34FF0A042C2F80C354E
:10434C002823BCF1000F06D003FB07552A48002395
:10435C006B77BDE8F883DEF8004003FB07530422BB
:10436C00C4F80823C3F820C0C4F808C1D4F8082145
:10437C0072688AB133681B78C4F81C35012A0DD9D0
:10438C0033685B78C4F81C35B8F1000F0ED00423E9
:10439C00C4F804331948DCE7DB7FEDE7F368012B45
:1043AC00F2D9282303FB0753DB7FEBE707EB8701ED
:1043BC0005EBC101D4F80831002BFBD0C4F80881FF
:1043CC002046D4F8083102F0A4FA0028F2D12823B0
:1043DC0003FB0755AB7FFF2BDCD0012203F01F033F
:1043EC0002FA03F34FF0A042C2F80835D2E70448B2
:1043FC00AFE700BFF00500200300AD0B0000AD0BD4
:10440C000B00AD0B4FF04020002310B50E49C0F847
:10441C000831D0F8083102F07CFAA0B98B7FFF2B61
:10442C0008D0012203F01F0302FA03F34FF0A0425D
:10443C00C2F8083500230B724B77BDE81040D1E968
:10444C0000310248184710BDF0050020F805002087
:10445C000E4B70B553F82040013053F82060A64243
:10446C0000D870BDD4E900352846984765B1EB6893
:10447C0030B10028B8BF4042FF28A8BFFF201870F9
:10448C005A7842F001025A700834E8E76070000074
:10449C0070B5054610B90024204670BD0378002B7A
:1044AC00F9D00E4C0E4EB44208D10C4CB442F2D0A2
:1044BC00204602F062FA50B91834F7E7204602F0B1
:1044CC005CFA10B12368AB42E6D01834EBE72168F4
:1044DC00284602F0C8F80028EED1DDE7A400002041
:1044EC001C01002010B50446FDF7EAFA064B0749FB
:1044FC000748C91AC908890141F0010101F099FC6A
:10450C00204602F043FA00BF286E0000486E0000FF
:10451C00017800002DE9F34106460F464FF02003C9
:10452C00EFF3118883F31188BFF36F8F00F032FD26
:10453C001F4C204BE41A042E4FEAD40496BF1E4A9B
:10454C001E4A52F82620A40144F001030546ADF89A
:10455C0000301B480023314601F0A5FC47B1FB6934
:10456C00C3F3080323B1174844F0010101F061FCC7
:10457C0044F001042DB1284602F00FFB08B103787A
:10458C0003B91148FDF718F92346024629460F488E
:10459C0001F070FC39463046FFF7A4FF88F3118810
:1045AC00BFF36F8F284602B0BDE8F041FEF788BD1F
:1045BC00486E0000286E0000787000001078000033
:1045CC00267800004E7800001E7800006F780000FE
:1045DC0008B5094C4FF02002EFF3118382F31188D8
:1045EC00BFF36F8F02F0F1FA2062FDF7FFFD002898
:1045FC00F0D1FEF78FFAEDE7180600200248034AC7
:10460C000021121A02F066B8400100209C0C002018
:10461C0008B50A4B012202201A70FFF719FF00F0AF
:10462C0011FE0320FFF714FF00F0B0FDFBF7D6FEE0
:10463C00034A137B23F00103137308BD980C00206D
:10464C00880200202DE98048A7B0FDF70DF8DFF8AF
:10465C00D89089F30888354D354E6B69DFF8D4A0B6
:10466C00354F43F4007300246B61E02385F822304E
:10467C00EC772C766C76AC766B6A43F4E0236B6249
:10468C00FEF7FCFCFEF740FA4FF0FF33AB62EB6237
:10469C002A4D40F20113ADF8243006ABAB60CDE9E6
:1046AC001F4402F069F92046FFF7D2FE0120FFF704
:1046BC00CFFE4FF0010B00F0BBFB214B6E6221498A
:1046CC0005934FF480625346CDE9034BCDE9014489
:1046DC000094304600F0FEFC737B804623F004030C
:1046EC003046737302F0EDF90F23CDE902431649FE
:1046FC00164B4FF4A072CDE904B4CDE90054384602
:10470C0000F0E8FC7B7BEF6023F004037B7305F186
:10471C001803C5E906332C75C5F80490524641467A
:10472C003046FEF7D9F900BFE01C002000ED00E098
:10473C00880200201D4600000802002018060020F8
:10474C00D1780000A00F0020A0130020DD45000050
:10475C0070B50E4B0E4CA34201D3002070BDD3E9B3
:10476C00030141EA000212F003020BD19D685A6169
:10477C00AA4201D11C33EEE75E690E600132596129
:10478C000144F5E76FF01500E8E700BF1C010020BD
:10479C001C01002037B50C464FF02005EFF31181BA
:1047AC0085F31188BFF36F8F45695DB125602B6868
:1047BC004361836901338361002081F31188BFF366
:1047CC006F8F11E052EA030C03D125606FF00B00E0
:1047DC00F3E7CDE900230246044800F0B1F918B91B
:1047EC00034B9B685B69236003B030BD990C0020C0
:1047FC0018060020F8B504460D464FF02003EFF3E1
:10480C00118683F31188BFF36F8F47696FB902F07C
:10481C009FF950B12A684261876702F052F931461C
:10482C000848BDE8F84000F009B92B6862691A60C5
:10483C002B686361A369013BA36186F31188BFF305
:10484C006F8FF8BD990C00202DE9F34104461746F3
:10485C001E464FF02003EFF3118883F31188BFF34A
:10486C006F8FC3682F4A6BB180689168884219D0EA
:10487C0057EA060318D188F31188BFF36F8F6FF0D6
:10488C000F000CE0916891F90E1021610133E36087
:10489C009368A36088F31188BFF36F8F002002B078
:1048AC00BDE8F0812169F0E790F90E3091F90E1016
:1048BC009942A8BF194621EAE1718B422BDD02F027
:1048CC0090F80546CDE9007617482246414600F09F
:1048DC0037F90028E3D04FF02003EFF3118683F370
:1048EC001188BFF36F8F23682169A34207D033B1BE
:1048FC0093F90E309942A8BF194621EAE171A068DC
:10490C0002F06FF800B945B10748314600F096F84F
:10491C006FF00A00C3E70025D4E786F31188BFF3D4
:10492C006F8FF5E718060020990C002038B58368C6
:10493C000446002B32D01C4A9268934231D1DA7B68
:10494C00013ADA73C368012B05D0013BC36000F058
:10495C003DF9002038BD4FF02003EFF3118583F3B0
:10496C001188BFF36F8F0169806802F03AF8204616
:10497C0002F0EEF8A06058B190F90E2022610022EE
:10498C00826702F09EF80948294600F057F8DEE7E6
:10499C00E06085F31188BFF36F8FD8E76FF01500D7
:1049AC00D8E74FF0FF30D5E718060020990C00200F
:1049BC0010B5084C23685BB1FDF704FF0346206873
:1049CC00054A0344BDE810401361002102F00DB903
:1049DC0010BD00BF5006002018060020F8B5044694
:1049EC000D464FF02003EFF3118683F31188BFF3CC
:1049FC006F8F0F4B00214FF4004740F2E7301961E5
:104A0C004FF47A720023E4FB0701FBF761FB002CE7
:104A1C00084B09DC1860084B1D60FFF7C9FF86F3D3
:104A2C001188BFF36F8FF8BD0228B8BF0220F1E7E1
:104A3C0018060020500600204C06002049B9EFF360
:104A4C00058030B9054B5A6A9B689A4201D0FDF734
:104A5C00A3BF81F31188BFF36F8F70471806002036
:104A6C004FF02003EFF3118183F31188BFF36F8FA5
:104A7C00044B9A68D37B013BD37381F31188BFF34A
:104A8C006F8F70471806002038B50D4D024605F1A2
:104A9C00280001F0E6FF044600B9EC68AB684AB99F
:104AAC005A7BD20606D1A26922B9DA897F2A01D9AA
:104ABC006B6238BD9C4201D0FFF77AFF6C62F8E75D
:104ACC001806002008B590F90D20437B002A0146FA
:104ADC0004DA03F07F03437301F08BFF044B9868F7
:104AEC00431A58425841BDE80840FFF7CDBF00BFFC
:104AFC00180600202DE9F041064615461C464FF0DD
:104B0C002003EFF3118783F31188BFF36F8F01F04C
:104B1C00AEFF87F31188BFF36F8FB4F1FF3F08BF6F
:104B2C00B5F1FF3F08D02A46234606F11800034989
:104B3C00BDE8F04100F0F8BBBDE8F081EF6A000081
:104B4C0010B5074B9868074B0C4618601146DDE909
:104B5C000223FFF7CFFF2046BDE81040FDF71CBF36
:104B6C00180600204806002070B50446183002F0E4
:104B7C0016F84FF02003EFF3118683F31188BFF37F
:104B8C006F8F94F90D20637B002A05DA03F07F0305
:104B9C006373204601F02DFF0B4D637BA86843F037
:104BAC0010036373031B58425841FFF76DFF86F3E4
:104BBC001188BFF36F8FAB68A34203D1BDE870407F
:104BCC0001F045BF70BD00BF1806002010B54FF0B6
:104BDC002003EFF3118483F31188BFF36F8F084B1D
:104BEC009A68D37B0133D3730020FFF74DFF84F316
:104BFC001188BFF36F8FBDE8104001F028BF00BFD4
:104C0C001806002070B590F90D20437B002A014650
:104C1C0004DA03F07F03437301F0EBFE4B7B154A80
:104C2C0063F07F034B73D2E90A3402F12805AB42DF
:104C3C001BD0D3B191F90E6093F90E0086420FD0C0
:104C4C00801B00280CDD5868C1E9003001605960F8
:104C5C009068431A5842BDE870405841FFF714BFA2
:104C6C00A34202D01B68002BE6D1C1E9005421609D
:104C7C00D162EDE71806002038B501464FF020034D
:104C8C00EFF3118483F31188BFF36F8F154B164A22
:104C9C0098681568A84206D1FFF78AFE84F311883C
:104CAC00BFF36F8F38BD00251560104A1268BAB17A
:104CBC00C2897F2A14D8427BD20611D10C4A90F9B2
:104CCC000E50126895420BDB0A4A904208D01A69C2
:104CDC008A4202DCFFF796FFDEE7521A1A61DDE723
:104CEC000022FBE718060020480600205006002092
:104CFC004C0600200802002070B490F90D20437B74
:104D0C00002A2ADBDA0628D1826932BB144A63F006
:104D1C007F034373D2E90A3402F12805AB4217D062
:104D2C00B3B190F90E6093F90E108E420BD0891B23
:104D3C00002908DD5A68C0E900321060586070BC68
:104D4C000020FFF7A1BEA34202D01B68002BEAD1C2
:104D5C00C0E900542060D062F1E770BC704700BF1E
:104D6C001806002010B54FF02002EFF3118482F3E7
:104D7C001188BFF36F8F427B510704D484F31188E1
:104D8C00BFF36F8F10BD22F004024273FFF7B4FF24
:104D9C0021460248BDE81040FFF750BE990C002098
:104DAC00F8B504464FF02003EFF3118683F3118816
:104DBC00BFF36F8F437BDA0649B233D182698ABB6A
:104DCC0003F07F03437301F014FE437B174A817396
:104DDC0063F07F034373104650F8283F83421BD087
:104DEC00D3B1D76A93F90E50A94210D06D1A002D89
:104DFC000DDD5A68C4E9003214605C600120FFF7D5
:104E0C0043FE012086F31188BFF36F8FF8BDBB42C0
:104E1C0002D01B68002BE5D1D36AC4E900031C60E7
:104E2C00D462EBE7A1730020ECE700BF180600206A
:104E3C00044B002103F12802C3E90A220846FFF7BC
:104E4C00CDBD00BF180600202549F8B58A68254B52
:104E5C009A423BD04FF02003EFF3118583F3118876
:104E6C00BFF36F8F8868437B03F07F03437301F0BC
:104E7C00C0FD8B685A7B084662F07F025A7350F86B
:104E8C00282F82421CD0DAB1CF6A93F90E6092F9C6
:104E9C000E40A6420FD0A41B002C0CDD5168C3E9B8
:104EAC0000210B6053600120FFF7EEFD2846BDE8A2
:104EBC00F840FDF771BDBA4202D01268002AE6D163
:104ECC00CA6AC3E900021360CB62ECE74FF020031F
:104EDC00EFF3118083F31188BFF36F8FE7E700BF07
:104EEC00180600200802002050EA01032DE9F041C9
:104EFC0005460E4604D1FFF7A7FF0020BDE8F08160
:104F0C0001F08DFE04464FF02003EFF3118883F37C
:104F1C001188BFF36F8F0F4F0F4BB8681860FFF7F6
:104F2C00D1FDB8680D492A463346183000F0FCF91B
:104F3C00BA68537B43F0100353734046FDF72CFDC6
:104F4C0001F06DFE6219101A63EB0303002BB8BF5E
:104F5C000020D3E71806002048060020EF6A000066
:104F6C00B1F1FF3F08BFB0F1FF3F08B506D1084BC8
:104F7C009868FFF7F9FD4FF0FF3008BDFFF7B4FF5D
:104F8C004FF47A7380FB0303C00B40EA4340F4E711
:104F9C0018060020014B9868704700BF18060020C7
:104FAC002DE9F04104464FF02003EFF3118683F313
:104FBC001188BFF36F8F437B1A0705D586F31188D1
:104FCC00BFF36F8FBDE8F08123F0200242F008019F
:104FDC00D20920D14173A36813B1204601F011FD11
:104FEC0004F1180001F0DBFD04F158074FF0000844
:104FFC00A56DBD4200D0B5B90120FFF745FD104BA2
:10500C009B68A342DAD1EFF30583002BD6D130464F
:10501C00FDF7C2FCD2E703F05F0343F008034373D0
:10502C0001F0E7FCD7E7284601F0EBFC05F118008E
:10503C0001F0B5FDC5F878802846FFF75DFED7E78F
:10504C001806002038B504464FF02003EFF3118505
:10505C0083F31188BFF36F8F01F07AFD48B1002202
:10506C00826701F02EFD29460548BDE83840FFF760
:10507C00E5BCD4E902329A4218BF0133A360F2E7CF
:10508C00990C002013B54FF02004EFF3118184F339
:10509C001188BFF36F8F846844B1013C846081F345
:1050AC001188BFF36F8F002002B010BD52EA0304C9
:1050BC0006D181F31188BFF36F8F6FF00F00F3E708
:1050CC00CDE9002302460248FFF73AFDECE700BFAA
:1050DC00990C00202DE9FF410E9E067304264673A1
:1050EC000D9E867300F15805D61DC0E916550C9A15
:1050FC00002526F00706C0E90655C0E9191685609B
:10510C00C573C56602920B9A019201EB06080A9AC6
:10511C00009242460446FDF7C3FC054B65659B684F
:10512C0003B11B6F2367404604B0BDE8F08100BF9C
:10513C0018060020F0B587B000270597109F04973C
:10514C000F9F03970E9F0297DDE912650D9F019744
:10515C000C9F00970446FFF7BDFFB5F1FF3F08BF5A
:10516C00B6F1FF3F05D055EA060305D12046FFF7FF
:10517C00F9FD204607B0F0BD034932462B4604F139
:10518C00180000F0D1F8F4E7EF6A00002DE9F043C5
:10519C00294C2A4D87B02646AE4204F130040FD379
:1051AC00FFF75EFC244CDFF898904FF4004640F279
:1051BC00E737AC4220D307B0BDE8F043FFF706BD9C
:1051CC0054F8043C059354F8103C049354F8143CE4
:1051DC00039354F8183C029354F81C3C019354F874
:1051EC00203C009354E90C0154E90A23FFF772FFA9
:1051FC0054F8303C5E65CEE7636A5A1C0DD023EA46
:10520C00E37300213846C3FB060151EAC333D4F8DB
:10521C00008004D14046FFF7A5FD3034C9E74FF4B8
:10522C007A720023FAF754FF02460B4608F1180075
:10523C00494600F079F8F0E71C0100201C01002021
:10524C00EF6A0000024A0349034800F083BC00BF28
:10525C00BD710000D9780000FA78000008B5064846
:10526C00064A0749121A01F00AFABDE80840054A35
:10527C000549064801F003BA000000204001002057
:10528C0024790000000000002479000000000020B8
:10529C00034B1B680BB9FDF795BA0020704700BF94
:1052AC0054060020114B10B51C689C4208BF00240A
:1052BC00FFF7EEFF03466CB1D4E90402C01A62EBAF
:1052CC00E373012873F100020DDBB0F1004F73F1B1
:1052DC00000301DB6FF00040054B1B6913B19842D2
:1052EC00A8BF184610BD0020F6E700BF7C000020C8
:1052FC001806002030B5036868B10A4A526890421B
:10530C0009D043B1D3E90421D0E90445121941EB8A
:10531C000501C3E90421426813605A600023C0E907
:10532C00003330BD7C000020B3F1FF3F08BFB2F169
:10533C00FF3F2DE9F84F05460E469146984666D03C
:10534C00571C6FF0010A43F100044FF0FF3BBAEB1E
:10535C0007036BEB0403002B0FDBFFF799FF314BBB
:10536C00D3E90024BAEB02026BEB0404B2EB0902A2
:10537C0064EB0804171A64EBE074AE604FF0200382
:10538C00EFF3118683F31188BFF36F8FFFF780FF64
:10539C003A46012F244F74F10003B8BF01223B6839
:1053AC00B8BF0024121844EBE074BB42C5E90424D6
:1053BC0002D0D7F804C02BB97B68C5E900731D6017
:1053CC007D6011E0D3E90414D5E904208A4270EB26
:1053DC00040E1EDA8A1A64EB0000C3E904205A6832
:1053EC00C5E9003215605D603B68BB420BD09D4245
:1053FC0009D1FFF757FF18B10C4B1B69834202D040
:10540C000021FDF7ADF986F31188BFF36F8FBDE86E
:10541C00F88F521A60EB04006345C5E90420CBD029
:10542C001B68C8E7080300207C0000201806002039
:10543C002DE9F8430546FFF71FFC4FF02003EFF36F
:10544C00118483F31188BFF36F8F244EDFF89080A3
:10545C003560244DD8F8000032684045D5E9001E6F
:10546C004FEAE2770BD050B1D0E9043C9A4277EB8B
:10547C000C0916DA9B1A6CEB070CC0E9043C5218A9
:10548C004EEB0707C5E9002700253560FFF70AFF3B
:10549C002946FDF765F984F31188BFF36F8FBDE8DA
:1054AC00F88359184EEBE377D31A336000220023AC
:1054BC00C0E90423C5E90017FFF71CFF84F311882A
:1054CC00BFF36F8F836898474FF02003EFF311847D
:1054DC0083F31188BFF36F8FBCE700BF5406002025
:1054EC007C0000200803002010B54FF02003EFF3E0
:1054FC00118483F31188BFF36F8FFDF763F9054AAD
:10550C00D2E90031C01841F1000184F31188BFF3D6
:10551C006F8F10BD0803002038B5D0E90A32013373
:10552C0042F10002022B72F10003044604D3D0E9CD
:10553C000A230D49FFF7F8FE236B01332363236A1B
:10554C000BB12046984754F8185FA5420AD04DB1CC
:10555C00284601F060FA0023AB672846BDE83840C6
:10556C0001F0AFBA38BD00BF255500002DE9F04160
:10557C00114605461846B0F1FF3F08BFB1F1FF3F99
:10558C00DDE90623884607463CD0B3F1FF3F08BF50
:10559C00B2F1FF3F14461E4613D01A4311D06FF0E0
:1055AC000102121B4FF0FF3262EB0302002A08DAF1
:1055BC00013C63F10006012C76F10003BCBF012411
:1055CC0000266FF001035B1A4FF0FF3363EB00030F
:1055DC00002B08DA4A1E60F10007002F9046BCBF72
:1055EC004FF000084746284601F0D9FA00232B63F8
:1055FC00C5E90A4642463B4628460349BDE8F04108
:10560C00FFF792BEBDE8F0812555000007B5C0B28A
:10561C0051B960F07F008DF80400012001A9FBF75F
:10562C00BFFA03B05DF804FB60F03F007F298DF8F2
:10563C000400C8B285BF60F07F00C9098DF8050071
:10564C008DF8050092BF02208DF806100320E5E7C7
:10565C0008B50B4611460244B2F5806F05DC821E7C
:10566C000920FFF7D3FF002008BD4FF0FF30FBE708
:10567C0007B5C0B241B98DF80400012001A9FBF7B0
:10568C00C5FA03B05DF804FB40F040007F298DF8AB
:10569C000400C8B285BF60F07F00C9098DF8050011
:1056AC008DF8050092BF02208DF806100320E5E767
:1056BC0010B40C46034611461120224610BCFFF7CD
:1056CC00D7BF0346052200211520FFF7D1BF13B524
:1056DC0001AC042280B2234689B2FFF7C9FF032232
:1056EC000020A35C013A03EB0020FAD202B010BDFB
:1056FC0000210846FFF7EBBF07B5022201AB89B2C8
:10570C0080B2FFF7B5FF9DF805309DF8040000EB63
:10571C00032080B203B05DF804FB07B501220DF144
:10572C00070389B280B2FFF7A3FF9DF8070003B00F
:10573C005DF804FB07B589B28DF807200DF107035E
:10574C00012280B2FFF762FF03B05DF804FB07B5DE
:10575C008DF80420120A8DF8052001AB022289B2C3
:10576C0080B2FFF753FF03B05DF804FB024641F62D
:10577C0004012E20FFF7EBBF024600211820FFF793
:10578C00E6BF07B5130A8DF804208DF80530130C0D
:10579C00120E8DF806308DF8072001AB042289B269
:1057AC0080B2FFF733FF03B05DF804FB08B582B29B
:1057BC0004212D20FFF7CBFF032206212D20FFF71C
:1057CC00B9FF06212D200022FFF7B4FFBDE80840E9
:1057DC000A212D20FFF77BBF08B5002202212C20C7
:1057EC00FFF7A8FF0222BDE8084011462C20FFF766
:1057FC00A1BF10B56D22044640F606012E20FFF71E
:10580C0099FF44B140F20762BDE8104041F6060131
:10581C002E20FFF79CBF41F20762F5E713B5022279
:10582C00044601AB00213620FFF722FF0E2C1BD8BB
:10583C00DFE804F01208291A1A1A1A303D1A1A480D
:10584C004D52590000238DF804309DF8053023F09B
:10585C0001038DF8053007E09DF8043023F00303B5
:10586C0043F001038DF8043001AB012200213620F6
:10587C00FFF7CCFE01220DF1050311463620FFF790
:10588C00C5FE02B010BD9DF8043023F0030343F0B5
:10589C000203E7E79DF8043023F04C0343F0480380
:1058AC008DF804309DF8053063F07F03D1E79DF847
:1058BC00043023F04C038DF804309DF8053003F0D0
:1058CC007F03C6E79DF8053043F00203C1E79DF85E
:1058DC00053023F00203BCE79DF8043023F03003BD
:1058EC0043F02003BEE701238DF804300323B0E717
:1058FC0008B50E20FFF792FF4FF4004206212D2031
:10590C00FFF725FF012000F0F0F8BDE8084001206A
:10591C00FFF784BF08B50020FFF780FFBDE8084003
:10592C00002204213620FFF712BF024601210A2073
:10593C00FFF727BF08B503210F20FFF7EEFE80EA23
:10594C004000030606D5BDE80840012203210D20C6
:10595C00FFF7F0BE08BD410738B5044601D4FFF788
:10596C00E9FF14F001050CBF4FF480724FF4407244
:10597C0000210D20FFF7EBFE0DB9002038BD0321EF
:10598C000F20FFF7CAFE0307F7D5FAF77FFF14F0D5
:10599C00020104D14FF480720D20FFF7D8FE4FF0B6
:1059AC00FF30EBE708B5E02203213620FFF7C2FEFB
:1059BC00BDE80840F02203213620FFF7BBBE00F003
:1059CC001F0242F060020E212B20FFF7B3BE80B401
:1059DC0085B000AF78600023FB6010E00023BB6053
:1059EC0002E0BB680133BB60BB68012BD4BF012351
:1059FC000023DBB2002BF4D1FB680133FB60FB68A6
:105A0C007A689A428CBF01230023DBB2002BE5D1CC
:105A1C00002318461437BD4680BC704780B582B051
:105A2C0000AF78607B68184600F03FF800BF08377D
:105A3C00BD4680BD80B500AF0120FFF7C8FF002038
:105A4C0000F005F80220FFF7E9FF00BF80BD80B42D
:105A5C0083B000AF786000BF0C37BD4680BC704788
:105A6C0080B400AF00BFBD4680BC704780B500AFAE
:105A7C00FBF754F800BF80BD80B500AFFBF76EF8A4
:105A8C0000BF80BD80B400AFBD4680BCFFF7E8BF4F
:105A9C0080B400AFBD4680BCFFF7E2BF80B400AF5E
:105AAC0000231846BD4680BC704738B5002120EA5B
:105ABC00E0744FF4004540F2E7304FF47A72002363
:105ACC00C4FB0501FAF704FBBDE83840FFF748BA00
