:10000000204A0020F56F000039F40100257000003F
:100010002570000025700000257000000000000021
:10002000000000000000000000000000DD6C000087
:100030002570000000000000396C000049E101005B
:10004000B56F0000B1720100B56F0000B56F000020
:10005000B56F0000B56F0000B56F0000B56F000010
:10006000B56F0000B56F0000B56F0000B56F000000
:10007000B56F0000B56F0000B56F0000B56F0000F0
:10008000B56F0000B56F0000B56F0000B56F0000E0
:10009000B56F0000B56F0000B56F0000B56F0000D0
:1000A000B56F0000B56F0000B56F0000B56F0000C0
:1000B000B56F0000B56F0000B56F0000B56F0000B0
:1000C000B56F0000B56F0000B56F0000B56F0000A0
:0C00D000B56F0000B56F0000B56F0000B8
:0400DC00FFFFFFFF24
:1000E00081F0004102E000BF83F0004330B54FEAE9
:1000F00041044FEA430594EA050F08BF90EA020F56
:100100001FBF54EA000C55EA020C7FEA645C7FEAE8
:10011000655C00F0E2804FEA5454D4EB5555B8BF0B
:100120006D420CDD2C4480EA020281EA030382EA7C
:10013000000083EA010180EA020281EA0303362D0E
:1001400088BF30BD11F0004F4FEA01314FF4801CE1
:100150004CEA113102D0404261EB410113F0004FF3
:100160004FEA03334CEA133302D0524263EB4303AA
:1001700094EA050F00F0A780A4F10104D5F1200E48
:100180000DDB02FA0EFC22FA05F2801841F10001A3
:1001900003FA0EF2801843FA05F359410EE0A5F177
:1001A00020050EF1200E012A03FA0EFC28BF4CF0A8
:1001B000020C43FA05F3C01851EBE37101F000455E
:1001C00007D54FF0000EDCF1000C7EEB00006EEB6B
:1001D0000101B1F5801F1BD3B1F5001F0CD34908F5
:1001E0005FEA30004FEA3C0C04F101044FEA44524C
:1001F00012F5800F80F09A80BCF1004F08BF5FEAD3
:10020000500C50F1000041EB045141EA050130BDB2
:100210005FEA4C0C404141EB0101013C28BFB1F5C4
:10022000801FE9D291F0000F04BF01460020B1FA0F
:1002300081F308BF2033A3F10B03B3F120020CDAE2
:100240000C3208DD02F1140CC2F10C0201FA0CF0C0
:1002500021FA02F10CE002F11402D8BFC2F1200C25
:1002600001FA02F120FA0CFCDCBF41EA0C019040DB
:10027000E41AA2BF01EB0451294330BD6FEA040424
:100280001F3C1CDA0C340EDC04F11404C4F120020F
:1002900020FA04F001FA02F340EA030021FA04F321
:1002A00045EA030130BDC4F10C04C4F1200220FA78
:1002B00002F001FA04F340EA0300294630BD21FAB6
:1002C00004F0294630BD94F0000F83F4801306BF7C
:1002D00081F480110134013D4EE77FEA645C18BF70
:1002E0007FEA655C29D094EA050F08BF90EA020F07
:1002F00005D054EA000C04BF1946104630BD91EAFF
:10030000030F1EBF0021002030BD5FEA545C05D101
:100310004000494128BF41F0004130BD14F5800440
:100320003CBF01F5801130BD01F0004545F0FE41B4
:1003300041F470014FF0000030BD7FEA645C1ABFE9
:10034000194610467FEA655C1CBF0B46024650EA20
:10035000013406BF52EA033591EA030F41F400214C
:1003600030BD00BF90F0000F04BF0021704730B5D2
:100370004FF4806404F132044FF000054FF00001A7
:1003800050E700BF90F0000F04BF0021704730B568
:100390004FF4806404F1320410F0004548BF40423D
:1003A0004FF000013EE700BF42004FEAE2014FEA92
:1003B00031014FEA02701FBF12F07F4393F07F4F6D
:1003C00081F06051704732F07F4208BF704793F070
:1003D0007F4F04BF41F40021704730B54FF4607483
:1003E00001F0004521F000411CE700BF50EA010286
:1003F00008BF704730B54FF000050AE050EA01022F
:1004000008BF704730B511F0004502D5404261EB9E
:1004100041014FF4806404F132045FEA915C3FF4DF
:10042000D8AE4FF003025FEADC0C18BF03325FEA7C
:10043000DC0C18BF033202EBDC02C2F1200300FA2D
:1004400003FC20FA02F001FA03FE40EA0E0021FA52
:1004500002F11444BDE600BF70B54FF0FF0C4CF440
:10046000E06C1CEA11541DBF1CEA135594EA0C0FF2
:1004700095EA0C0F00F0DEF82C4481EA030621EA2D
:100480004C5123EA4C5350EA013518BF52EA033568
:1004900041F4801143F4801338D0A0FB02CE4FF01A
:1004A0000005E1FB02E506F00042E0FB03E54FF04A
:1004B0000006E1FB03569CF0000F18BF4EF0010E42
:1004C000A4F1FF04B6F5007F64F5407404D25FEA3E
:1004D0004E0E6D4146EB060642EAC62141EA5551F1
:1004E0004FEAC52040EA5E504FEACE2EB4F1FD0C33
:1004F00088BFBCF5E06F1ED8BEF1004F08BF5FEAB1
:10050000500E50F1000041EB045170BD06F0004662
:1005100046EA010140EA020081EA0301B4EB5C040F
:10052000C2BFD4EB0C0541EA045170BD41F4801107
:100530004FF0000E013C00F3AB8014F1360FDEBF2C
:10054000002001F0004170BDC4F10004203C35DA08
:100550000C341BDC04F11404C4F1200500FA05F38B
:1005600020FA04F001FA05F240EA020001F000422C
:1005700021F0004110EBD37021FA04F642EB0601A2
:100580005EEA430E08BF20EAD37070BDC4F10C04CC
:10059000C4F1200500FA04F320FA05F001FA04F290
:1005A00040EA020001F0004110EBD37041F100017C
:1005B0005EEA430E08BF20EAD37070BDC4F1200587
:1005C00000FA05F24EEA020E20FA04F301FA05F2EF
:1005D00043EA020321FA04F001F0004121FA04F297
:1005E00020EA020000EBD3705EEA430E08BF20EA67
:1005F000D37070BD94F0000F0FD101F000464000A1
:1006000041EB010111F4801F08BF013CF7D041EA22
:10061000060195F0000F18BF704703F00046520026
:1006200043EB030313F4801F08BF013DF7D043EAF7
:100630000603704794EA0C0F0CEA135518BF95EAAD
:100640000C0F0CD050EA410618BF52EA4306D1D134
:1006500081EA030101F000414FF0000070BD50EA53
:10066000410606BF1046194652EA430619D094EADD
:100670000C0F02D150EA013613D195EA0C0F05D1C7
:1006800052EA03361CBF104619460AD181EA03011B
:1006900001F0004141F0FE4141F470014FF00000D3
:1006A00070BD41F0FE4141F4780170BD70B54FF06E
:1006B000FF0C4CF4E06C1CEA11541DBF1CEA1355EE
:1006C00094EA0C0F95EA0C0F00F0A7F8A4EB0504D0
:1006D00081EA030E52EA03354FEA013100F08880C7
:1006E0004FEA03334FF0805545EA131343EA126390
:1006F0004FEA022245EA111545EA10654FEA002645
:100700000EF000419D4208BF964244F1FD0404F5FD
:10071000407402D25B084FEA3202B61A65EB030559
:100720005B084FEA32024FF480104FF4002CB6EB16
:10073000020E75EB030E22BFB61A754640EA0C0096
:100740005B084FEA3202B6EB020E75EB030E22BFD6
:10075000B61A754640EA5C005B084FEA3202B6EB17
:10076000020E75EB030E22BFB61A754640EA9C00D6
:100770005B084FEA3202B6EB020E75EB030E22BFA6
:10078000B61A754640EADC0055EA060E18D04FEA64
:10079000051545EA16754FEA06164FEAC30343EA04
:1007A00052734FEAC2025FEA1C1CC0D111F4801FD1
:1007B0000BD141EA00014FF000004FF0004CB6E7CA
:1007C00011F4801F04BF01430020B4F1FD0C88BF69
:1007D000BCF5E06F3FF6AFAEB5EB030C04BFB6EB74
:1007E000020C5FEA500C50F1000041EB045170BD67
:1007F0000EF0004E4EEA113114EB5C04C2BFD4EB94
:100800000C0541EA045170BD41F480114FF0000E17
:10081000013C90E645EA060E8DE60CEA135594EA93
:100820000C0F08BF95EA0C0F3FF43BAF94EA0C0F96
:100830000AD150EA01347FF434AF95EA0C0F7FF40B
:1008400025AF104619462CE795EA0C0F06D152EA5F
:1008500003353FF4FDAE1046194622E750EA410643
:1008600018BF52EA43067FF4C5AE50EA41047FF454
:100870000DAF52EA43057FF4EBAE12E74FF0FF3CB9
:1008800006E000BF4FF0010C02E000BF4FF0010C8A
:100890004DF804CD4FEA410C7FEA6C5C4FEA430C03
:1008A00018BF7FEA6C5C1BD001B050EA410C0CBF52
:1008B00052EA430C91EA030F02BF90EA020F0020B4
:1008C000704710F1000F91EA030F58BF994208BF1B
:1008D00090422CBFD8176FEAE37040F001007047D8
:1008E0004FEA410C7FEA6C5C02D150EA013C07D12F
:1008F0004FEA430C7FEA6C5CD6D152EA033CD3D07A
:100900005DF8040B704700BF8446104662468C4673
:100910001946634600E000BF01B5FFF7B7FF0028A6
:1009200048BF10F1000F01BD4DF808EDFFF7F4FFCF
:100930000CBF012000205DF808FB00BF4DF808ED5A
:10094000FFF7EAFF34BF012000205DF808FB00BF7D
:100950004DF808EDFFF7E0FF94BF012000205DF89F
:1009600008FB00BF4DF808EDFFF7CEFF94BF012054
:1009700000205DF808FB00BF4DF808EDFFF7C4FF4D
:1009800034BF012000205DF808FB00BF4FEA4102A0
:1009900012F5001215D211D56FF47873B3EB6252D1
:1009A00012D94FEAC12343F0004343EA505311F0F8
:1009B000004F23FA02F018BF404270474FF000008A
:1009C000704750EA013005D111F0004008BF6FF0C8
:1009D000004070474FF00000704700BF4FEA4102EF
:1009E000B2F1E04324BFB3F5001CDCF1FE5C0DD98D
:1009F00001F0004C4FEAC0024CEA5070B2F1004FD7
:100A000040EB830008BF20F00100704711F0804FD9
:100A100021D113F13872BCBF01F00040704741F49E
:100A200080114FEA5252C2F11802C2F1200C10FAA2
:100A30000CF320FA02F018BF40F001004FEAC12386
:100A40004FEAD32303FA0CFC40EA0C0023FA02F32A
:100A50004FEA4303CCE77FEA625307D150EA013300
:100A60001EBF4FF0FE4040F44000704701F00040D0
:100A700040F0FE4040F40000704700BF53B94AB94F
:100A8000002908BF00281CBF4FF0FF314FF0FF3096
:100A900000F078B9ADF1080C6DE904CE00F006F86D
:100AA000DDF804E0DDE9022304B070472DE9F047EA
:100AB000089D0E4604468E46002B4CD18A42944631
:100AC00067D9B2FA82F252B101FA02F3C2F12001FF
:100AD00020FA01F10CFA02FC41EA030E94404FEABD
:100AE0001C48210CBEFBF8F61FFA8CF708FB16E336
:100AF00041EA034306FB07F199420AD91CEB0303C1
:100B000006F1FF3080F01E81994240F21B81023EC7
:100B100063445B1AA4B2B3FBF8F008FB103344EA59
:100B2000034400FB07F7A7420AD91CEB040400F1B9
:100B3000FF3380F00981A74240F206816444023805
:100B4000E41B40EA064000211DB1D4400023C5E962
:100B50000043BDE8F0878B4208D9002D00F0EF80FC
:100B60000021C5E900060846BDE8F087B3FA83F125
:100B7000002949D1B34202D3824200F2FF80841A95
:100B800066EB030301209E46002DE2D0C5E9004E2E
:100B9000DFE702B9FFDEB2FA82F2002A40F08E806F
:100BA000A1EB0C064FEA1C471FFA8CF30121B6FBA0
:100BB000F7FE07FB1E60260C46EA004603FB0EF01C
:100BC000B04208D91CEB06060EF1FF3802D2B04243
:100BD00000F2D080C646361AA4B2B6FBF7F007FB87
:100BE000106644EA064400FB03F3A34208D91CEB59
:100BF000040400F1FF3602D2A34200F2B88030466E
:100C0000E41A40EA0E409FE7C1F1200722FA07F4F8
:100C10008B40234306FA01FC26FA07F420FA07F674
:100C200046EA0C064FEA134900FA01F8B4FBF9FE54
:100C3000300C1FFA83FC09FB1E4440EA04440EFBFF
:100C40000CF0A04202FA01F20AD91C190EF1FF3A87
:100C500080F08B80A04240F28880AEF1020E1C44EE
:100C6000241AB6B2B4FBF9F009FB104446EA044476
:100C700000FB0CFCA44507D91C1900F1FF3670D20B
:100C8000A4456ED902381C4440EA0E40A0FB02E69F
:100C9000A4EB0C04B442F446B14659D356D0002D0F
:100CA0006ED0B8EB0C0364EB0904CB4004FA07F7F1
:100CB0001F43CC40C5E9007400214AE7C2F120007F
:100CC00024FA00F10CFA02FC06FA02F326FA00F00C
:100CD0004FEA1C4741EA0306B0FBF7F11FFA8CF319
:100CE00007FB110E300C40EA0E4001FB03FE864567
:100CF00004FA02F408D91CEB000001F1FF3832D2EB
:100D0000864530D902396044A0EB0E00B6B2B0FB84
:100D1000F7FE07FB1E0046EA00460EFB03F0B0425A
:100D200009D91CEB06060EF1FF3818D2B04216D9CD
:100D3000AEF1020E6644361A4EEA014137E7294603
:100D4000284606E70646E4E61846F9E6F045A6D248
:100D5000BEEB020C66EB0303013899469FE7C646DB
:100D6000E9E7304690E74146CEE7D64678E7644467
:100D7000023845E7AEF1020E66442CE7084603E769
:100D80002946E6E6704700BF2DE9F04755EC104BC9
:100D90004FA3D3E9002310EE100A86B0294659EC80
:100DA000118B57EC126BFFF7E7FD824600287CD1D0
:100DB0000022002320462946FFF7C0FD002878D1F5
:100DC00029462046FFF7E2FD8246FFF7DBFA02469E
:100DD0000B4620462946FFF787F93F4B0022FFF7D5
:100DE0003BFBFFF7D3FD3D4D39A3D3E900236870EA
:100DF00085F800A040464946FFF7BEFD044600289E
:100E000059D10022002340464946FFF797FD0028AC
:100E100054D149464046FFF7B9FD0446FFF7B2FA00
:100E200002460B4640464946FFF75EF92A4B002230
:100E3000FFF712FBFFF7AAFDAC70E87024A3D3E91B
:100E4000002330463946FFF797FD0446C0BB002219
:100E5000002330463946FFF771FDA0BB39463046C6
:100E6000FFF794FD0446FFF78DFA02460B46304625
:100E70003946FFF739F9184B0022FFF7EDFAFFF773
:100E800085FD687118222C71002168461EF04FFB09
:100E9000134B6946CDE9013500200623ADF80C302F
:100EA0000BF054FB06B0BDE8F08700204FF07F0A3E
:100EB00099E7504697E700207F24BDE72046BBE72F
:100EC00000207F24DDE72046DBE700BFAFF3008092
:100ED0000000000000C05F40000059407A07002079
:100EE0009428020000000000F8B55B4F5B4D5C4E9B
:100EF0003B682B723378AB70A871802200210446C6
:100F00000F201BF0C5FE294600220C201BF008FE16
:100F1000012200210C2003F0C3FE022004F00EF891
:100F2000504A514D13680133136000210F201BF00C
:100F30004DFE2842F9D0337810F4804103F10103CB
:100F400033706ED04FF4804200210F201BF0A0FEC2
:100F5000002110201BF03AFE00F07F01142903D875
:100F6000424800221BF00CFE404E337A0025A3427B
:100F7000B5705CD1B2793B689A4258D17379562BDF
:100F800055D13B4A1368013313601BF034FE07460A
:100F90001BF035FE04461BF0FDFDFFF7F3F9354B62
:100FA0004FF0FF32FFF758FAFFF718FD06EE100A70
:100FB0000A362B46294616F8012B9A400833202B77
:100FC0001144F8D100222C4D134615F8010B904026
:100FD0000832202A0344F8D15B1A07EE103AE21BCC
:100FE00007EE902AF7EE006A76EEC66AB8EEC77A88
:100FF000F8EEE77A47EE667AB6EE007A67EE877A21
:1010000017EE900AFFF7D0F90DA3D3E90023FFF7FD
:1010100023FA0DA3D3E90023FFF71EFA41EC100BCE
:10102000F8BD164A0F201BF033FE1BF016FF0220FE
:101030001BF050FF9FED060BF2E700BFAFF30080FF
:10104000FA48CE3B1835B13D0000001319DDB1411F
:1010500000000000000024C0B4160020800700201B
:10106000B22D0020BC16002000D02724B32D002074
:10107000B8160020FFFF0FBEC12D002000902724CE
:101080002DE9F04F2DED028B9FEDBD8B9BB081467E
:101090008A4615461C460026287810B9304600F0CE
:1010A000E8BD6B1C2528029306D05146C84700288E
:1010B000C0F2DF85013652E2182200210CA81EF092
:1010C00036FA6B78252B7CD00023681C1F469C4683
:1010D0009E469846014610F8012B2B2A00F0A0806E
:1010E00000F29780202A00F09E80232A00F09E8044
:1010F000B8F1000F05D09DF8380040F004008DF8DD
:101100003800BEF1000F05D09DF8380040F008000F
:101110008DF83800BCF1000F05D09DF8380040F084
:1011200010008DF838002FB19DF8380040F02000F5
:101130008DF838002BB19DF8383043F040038DF81E
:1011400038309DF8383003F04400442803D16FF361
:1011500086138DF838309DF838302A2A43F0800302
:101160008DF838307ED19DF8392042F001024B1CB9
:101170008DF839201A782E2A9DF839200CBF0121CC
:10118000002161F341028DF8392077D15A782A2A5B
:101190006DD0013300214FF00A0C184610F8012BD6
:1011A000A2F13007092F40F2AB809DF83820109152
:1011B000C2F3400040EAD17161F341028DF838205A
:1011C0005CE0AA1C02928DF83B309DF83930DF07B5
:1011D00040F1798154F804BBBBF1000F07DA9DF8A8
:1011E000382042F004028DF83820CBF1000B58076C
:1011F00040F1728154F8048BB8F1000F80F27181D4
:101200009DF839306FF341038DF839304FF0FF38D6
:1012100067E12D2A0CD0302A7FF46AAF012359E709
:101220004FF0010E56E74FF0010C53E7012751E74D
:101230004FF001084EE70CFB0272303A03461846A5
:1012400010F8017BA7F1300EBEF1090FF3D99942D6
:1012500090D09DF838100F92D20F62F341018DF8B3
:10126000381087E70B4600224FF00A0CE7E79DF89D
:10127000392042F004028DF839200233194611F862
:10128000012B6C2A5CD040D8682A46D06A2A61D0EB
:101290004C2A67D019460B4613F8012B0293782A83
:1012A0008DF83B2000F2E580572A6DD8412A04D002
:1012B000A2F14503022B00F2DC809DF83A300421B4
:1012C00061F302038DF83A3002F0DF03A3F1410825
:1012D0009DF83920D8F1000343EB080363F3C712EC
:1012E0008DF83920D3B2120600F1EB8003F07802BA
:1012F000182A40F0BB806FF3C6038DF83930A2E0A6
:101300000CFB01213039034647E7742A26D07A2A9C
:10131000C0D19DF8393006220DE05A78682A9DF830
:10132000392006D1012161F3C6028DF83920991CBC
:10133000B1E71346022262F3C6038DF83930AAE7FB
:101340005A786C2A9DF8392001D10421EBE7134625
:101350000322F0E79DF839300522ECE79DF839309B
:101360000722E8E7BDF8383023F4F04323F0020306
:1013700043F4804343F00203ADF838308BE700BFFD
:101380000000000000000008A2F15803202B70D8D4
:1013900001A151F823F000BF4B14000073140000AA
:1013A0007314000073140000731400007314000021
:1013B000731400007314000073140000BB120000CB
:1013C000731400004B1400001D140000BB12000039
:1013D000BB120000BB120000731400001D140000BB
:1013E00073140000731400007314000073140000E1
:1013F000811400004B140000A514000073140000B9
:1014000073140000A5140000731400004B140000B6
:1014100073140000731400004B1400009DF83A3060
:10142000012161F302038DF83A309DF8393003F061
:101430007803402B02BF9DF8381041F001018DF870
:101440003810632A05D0002306E09DF83A300221C7
:10145000E7E7003B18BF01239DF83820C2F34001A5
:101460000B4363F341028DF83820AEE613F0380FDA
:10147000E9D09DF8383043F001038DF83830E2E7C9
:101480009DF83A30032262F302038DF83A309DF85A
:10149000393003F07803A3F1400CDCF1000343EB97
:1014A0000C03D9E79DF83A30032262F302038DF86A
:1014B0003A309DF8393013F0780F14BF0123002320
:1014C000CAE70123C8E79DF93820002AB4BFDDF838
:1014D0003CB04FF0FF3B8AE699077FF597AEDDF809
:1014E00040809DF839100023CDE90F339DF83A3044
:1014F00003F00702042A09D18A0707D49DF939208D
:10150000002AB4BF4FF00D084FF0060803F00703A0
:10151000012BC1F3C30137D1CB1E042B21D8DFE847
:1015200003F003090920200054F8043BDA17CDE941
:101530000C3206E0073424F00704F4E80223CDE976
:101540000C239DF83870BB0754D0029B2A465146A5
:1015500048461CF08AF90028C0F28B830644029D9D
:101560009AE554F8043B01294FEAE372CDE90C32C5
:1015700005D19DF830300C9300230D93E1E702294B
:10158000DFD1BDF93030D1E7022B23D1CB1E042BA4
:1015900013D8DFE803F0030A0A12120020680C9047
:1015A0000022231D0D921C46CBE7E31D23F0070309
:1015B000B3EC027B8DED0C7BF5E754F8043B0C9308
:1015C00001294FF000030D93D3D00229B9D1BDF802
:1015D0003030D0E7042B07D1073424F00704F4E8B7
:1015E0000223CDE90C23ACE7032B04BF54F8043BE2
:1015F0000C93A6E79DF83B20782AB0D8572A00F232
:101600008C80252A00F0D480242AA8D9412A03D02E
:10161000A2F14503022BA2D8DDE90C13002BC0F286
:10162000B781380700F1B68117F0100718BF2027DF
:10163000C3F30A55C3F31303CDE90813002D40F09B
:10164000AB8151EA030014BF01200020DB0243EA12
:101650005153C902462A45EA010E43EAE57C08BF18
:1016600066225EEA0C0CCDE9081300F0FF81002829
:1016700040F0C781DDE908014FF0000C41F0004166
:10168000A5F2FE35099163464FF0050E15F1020FE4
:10169000C0F2BE81BCF1000F01D0CDE90801002DE0
:1016A000DDE9080100F3C98109980899C5F1040C26
:1016B0001C3500FA05F5ACF1200E21FA0CF120FAE8
:1016C0000EFE294341EA0E0120FA0CF0CDE9081084
:1016D00002F0DF01472940F0D081DD1C02DB984594
:1016E00080F2C781023AB8F1000FD2B201DD08F1F1
:1016F000FF389DF83810880600F1BF81B8F1000F5F
:10170000D4BF00210121662A039140F0B88118EB73
:10171000030540F1B6810025B6E1A2F15803202B64
:101720003FF61DAF01A050F823F000BF33190000B1
:101730005F1500005F1500005F1500005F150000D9
:101740005F1500005F1500005F1500005F150000C9
:10175000191600005F150000DD170000D318000007
:101760001916000019160000191600005F15000078
:10177000D31800005F1500005F1500005F15000022
:101780005F150000691900003319000037190000C7
:101790005F1500005F150000B71700005F1500001F
:1017A000331900005F1500005F15000033190000B9
:1017B000514610467AE4B8F1000F0C9A09DB414615
:1017C000104603921DF062FE039A0027151862B9B5
:1017D000C5E6104603921DF052FEF5E70C9B8DF80E
:1017E0004C3000270DF14D0513AAAB1A07B1013398
:1017F0009DF83A00C10640F1308202330F9940064D
:101800000B4444BF10995B18BBF1000F23DDABEB19
:10181000030B9DF838305907C3F380081BD45806D2
:1018200040F12C82002F00F02C8251463846039262
:10183000C8470028C0F21D82039A474601364FF080
:1018400030085E445B46002BA6EB0B000BF1FF3B20
:1018500000F30782064647B1514638460392C8470F
:101860000028C0F20682039A01369DF83A305906E4
:1018700040F15B829DF93930002BA6EB020680F225
:101880000F821746B846F31917F8010B702840F07D
:10189000FB81109F1E461F44BB1B002B00F33E82A2
:1018A0002B464246514648461BF0DFFF0028C0F257
:1018B000E081304406468344ABEB0603002B7FF700
:1018C0004EAE51462020C8470028C0F2D2810136D2
:1018D000F2E73D072BD417F0100718BF2027DDE9EA
:1018E0000C23002B05DA524263EB4303CDE90C23B2
:1018F0002D270DF1650300930EAADDE90C0113AB52
:101900001BF06DFF0246B8F1000F0DF16505FFF603
:101910005EAF9DF83810AB1A6FF3861198458DF8BD
:1019200038107FF654AFA8EB03030F934FE72B2734
:10193000D5E70027DDE70C98002800F08A810DF13B
:10194000650300930EAA13AB00211BF048FFBDF8FE
:101950003A3003F0EF0343F4F04343F01003024640
:10196000ADF83A300027CEE70C9B07293FF6F7ADDC
:10197000DFE801F00C04060C08080C0C1E70EEE504
:101980001E80ECE5F217C3E90062E8E51E60E6E5BB
:101990002D274DE62B274BE640F2FF7085422DD1D7
:1019A0000B43A2F141021BD1192A11D849238DF80A
:1019B0004C304E238DF84D3046238DF84E309DF837
:1019C00038306FF386138DF838300DF14F050BE783
:1019D00069238DF84C306E238DF84D306623ECE78B
:1019E000192A99BF4E2341226E23612294BF8DF89C
:1019F0004C308DF84C308DF84D20DEE7002025E688
:101A0000013D49185B41002BFADACDE9081331E6B4
:101A1000400840EAC1704908B1F1333FAC4605F1D6
:101A20000105F5D20EFB01F5A0FB0E012944013B97
:101A30000CF102054FF0010C28E6023041F10001E3
:101A4000CDE9080108A8CDE903231BF099FE049B0A
:101A5000039ADDE90810013D01334918404100288F
:101A600005F1FF35F9DACDE9081018E600231D4627
:101A70001AE6A8EB030866223BE6002143E608F1DC
:101A80000105102DA8BF10258DED0A8B102107919F
:101A9000DDE90A10A5B9089D4919099D40EB05002B
:101AA000B0F1805F1BD2CDE90810662A40F0998022
:101AB000002B23DC30218DF84C100DF14D052FE06B
:101AC000490841EAC0714008CDE90A100AA8CDE9E9
:101AD0000423013D1BF054FEDDE90423D8E7490847
:101AE00041EAC0714008CDE9081008A8CDE90423F7
:101AF0001BF046FE059B049A0133D6E713AD079908
:101B000000290BDD07A908A8CDE904231BF050FE2E
:101B1000059B05F8010B013B049AF0D10F930023BC
:101B20009DF83810890602D4B8F1000F1DDD2E2172
:101B300005F8011B9BB1B8F1000F16DD5942414574
:101B4000A8BF41469DF83A000F910029A8EB010873
:101B5000D4BF0021012161F345108DF83A00B8F19E
:101B6000000F02DD0799002956DC0399002963D193
:101B7000CDF8408002F0DF01452921D1002B294614
:101B8000B8BF5B4201F8022BB4BF2D222B22632B7E
:101B90006A7009DD642093FBF0F202F1300CE91C5D
:101BA00085F802C000FB12330A200D4693FBF0F2C9
:101BB00000FB123302F1300C303305F802CB4B70CE
:101BC0000F9B002B43DC109B002BD4BF0023012371
:101BD0009DF83A2063F3861200238DF83A202B708B
:101BE00002E607A908A8CDE904231BF0E1FDDDE921
:101BF00004239DF838108DF84C00302818BF03F1ED
:101C0000FF33880602D4B8F1000F12DD2E218DF8C3
:101C10004D100DF14E05A2E707A908A8CDE9042350
:101C20001BF0C6FD08F1FF38DDE9042305F8010BC0
:101C300095E70DF14D0598E700211091284615F81C
:101C4000011D3029FAD02E2918BF054692E701233D
:101C5000BEE74B4D07466A1FC7E5010748BF013382
:101C6000CCE5514640460392C8470028039ABFF688
:101C7000E9AD1BB0BDEC028BBDE8F08F4FF0200842
:101C8000DFE54FF03008DCE55146C8470028BFF6D5
:101C9000F9ADEEE751460392C8470028039AE8DB06
:101CA0001078A0F13003092B174606EB020802F169
:101CB0000102EFD99DF83A300F9E9B0607D4B0443D
:101CC000002EA8EB060206F1FF360FDC90463878AE
:101CD0002E2808D15146C8470028CADB002E08F13B
:101CE000010809DC0137A8EB07060EE05146302059
:101CF000C8470028E4DABCE751463020C847013E17
:101D0000EAE75146C8470028B3DBB846F31917F88D
:101D1000010BA0F13002092AF3D9BAE5514630206F
:101D2000C8470028A5DB0136B6E5D80601D4190757
:101D300007D5514630200392C847002899DB039A03
:101D400001369DF83A30DB0608D59DF83B0003923A
:101D50005146C84700288CDB039A01360F9F374451
:101D6000BB1B002B01DC2B469CE551463020039227
:101D7000C8470028FFF67DAF039A0136F0E700BFA1
:101D8000E14002000000000070B5434DD5F8243159
:101D9000996811F0010188B021D103AA40F60340EF
:101DA00006F04CFC0446002873D1039B9B681B780B
:101DB00093B9BFF35B8F2B4653F8982FBFF35B8F1C
:101DC00002F00502BFF35B8F53E8001F43E80020D9
:101DD0000028F9D1BFF35B8F039818F01DF903AA0F
:101DE000002141F2030006F029FC0446002850D1EE
:101DF000039B2A489968082201311DF06DFB039866
:101E000018F00AF9214603AA41F2010006F016FC77
:101E1000044600283DD1039883685A7885F8342019
:101E2000D9789A7842EA0122EA861A7985F835202B
:101E3000197ADA7942EA01222A875A799B7942EAA9
:101E400003236B8718F0E8F8214603AA41F2020049
:101E500006F0F4FB0446E0B9039B11489968402260
:101E600001311DF039FB0E481DF01CFC039818F0E1
:101E7000D3F895F8403058061AD40A4B0A490B4853
:101E8000C91AC908890141F001011BF04BFD6FF02F
:101E90001204204608B070BD000000203C00002065
:101EA00044000020D8250200B0260200F94E0200AE
:101EB000214603AA42F2030006F0C0FB04460028B4
:101EC000E7D1039BA2489968082201311DF004FB69
:101ED000039818F0A1F8214603AA42F2020006F086
:101EE000ADFB04460028D4D1039B9B68B3F80120C6
:101EF000A5F8CC2091B221B1DA78964811461FF0AE
:101F000096FF039818F088F895F8406016F02006C0
:101F100000F0FD8095F86030190712D503AA002162
:101F200042F21C0006F08AFB04460028B1D1039857
:101F30008368D3F80120D3F80530C5E92A2318F0C7
:101F40006BF895F8A0309A0624D502A90DF1060089
:101F500006F0EEFB044600289BD1042142F2240047
:101F600006F00AFA0646002800F0D880042108305E
:101F70001FF08CFBBDF806300380BDF808304380AD
:101F80002246314642F2240006F058FB044600285F
:101F90007FF47FAF95F8A0305B0610D503AA00212F
:101FA00042F22A0006F04AFB044600287FF471AF93
:101FB000039883685B7885F8E83018F02DF80821DD
:101FC00042F2010006F0D8F90446002800F0A6808D
:101FD000082108441FF05AFB95F8A01011F0400F9B
:101FE00040F2022308BF03238E074CBF43F02C03AB
:101FF00043F00C030246880695F8A10048BF43F061
:10200000400310F0090F18BF43F40063CE0795F8A2
:10201000661001F0060148BF43F01003062908BF0F
:1020200043F4C073184600211DF0E0FB2146002256
:1020300042F2010006F002FB044600287FF429AFBB
:1020400095F8403098061ED4B5F8CC10D9B903AA3B
:1020500041F2050006F0F2FA044600287FF419AFB9
:10206000B5F8CC3063B9039B9B685A78997842EAFB
:102070000122A5F8CC209A88364811461FF0D7FED9
:10208000039817F0C9FF082140F6014006F074F9E3
:102090000446002842D0082108441FF0F7FA95F8BA
:1020A000A030D907024653BF4FF0005126A1D1E915
:1020B000000129481DF09AFB2146002240F601400C
:1020C00006F0BCFA044600287FF4E3AE014602AAFB
:1020D0004FF6014006F0B2FA204C214BE41AE40816
:1020E000A401002840D01F4844F002011BF01AFC54
:1020F00007F08CFB044600287FF4CBAE08F00EFD01
:10210000044600287FF4C5AE06F0FCFEC1E60221BD
:1021100040F66D4006F030F9044610B96FF0360411
:10212000B7E6022108301FF0B1FA012303704670B0
:102130002146324640F66D4006F080FA04460028FB
:102140003FF4E8AEA5E600BF9088000200800020C2
:10215000A0000020D000002010880002B02602005D
:10216000D82502001D4F0200029B36489E68B6F833
:102170000120032A96BF3449344951F8221044F013
:1021800003031BF0F5FBB6F80110B6F80320022993
:1021900044F003032ED1032A2CD82D4951F82210E4
:1021A0002C481BF0E5FB72792B48032A96BF2B497C
:1021B000264951F82210CDE90312B2790592B6F8FA
:1021C00007200692D6F80920079244F0030305225F
:1021D00003A91BF005FC029817F01EFF02AA0021BC
:1021E0004FF6024006F02AFA064628B11C4844F091
:1021F00002017BE71549D3E7029B1A48996802223E
:1022000001311DF069F9029817F006FF95F8853045
:102210005B077FF56DAF02AA31464FF6034006F02B
:102220000DFA18B1104844F002015FE7029B0F4815
:102230009968012211441DF04FF9029817F0ECFE45
:1022400056E700BF414F0200882D0200024A0200FB
:10225000482D02005A4F0200724F0200C02D0200AA
:102260009F4F020085000020C84F0200840000201C
:102270009FED097B0C4B0D490D4A83ED007B9FEDD3
:10228000087B0C4B81ED007B1F200021C2E900017F
:1022900000221A60704700BFFFFFFFFFFF1F000012
:1022A00000000000000000002801002010120020A3
:1022B00030010020BC1B00202DE9F041D0E90B3596
:1022C000866A5C193034A6428846174618D81C4DD9
:1022D000A3FB050118A3D3E90023FEF7CFFBA41B42
:1022E00020F07F40C8F8000013A3D3E90023A4FB2B
:1022F0000501FEF7C3FB20F07F403860BDE8F081A8
:102300000F4C0DA3D3E90023A6FB0401FEF7B6FB97
:1023100005F1300120F07F40C8F8000006A3D3E9A2
:102320000023A1FB0401FEF7A9FB20F07F403860E9
:10233000BDE8F081AFF300808D49FD1A0700000071
:1023400000CA9A3B000000002DE9F04FAB4C94F816
:102350004A608FB006F00106002800F04781B6BB46
:1023600094F8292094F8353094F8250004EB820283
:1023700004EB8303FF2100F0030084F82610D2F859
:102380002C80D3F8389014F025FC94F84A004107CB
:1023900000F11881B8F1000F11D09848414610F0B3
:1023A0009FFC98F800305A0605D506210CF046F837
:1023B000002800F0D9819148494610F091FC98F826
:1023C000003013F00E0F40F0D080236A23B10C26AA
:1023D00030460FB0BDE8F08F0FF07AFD824600283E
:1023E00000F0D1810FF080FD8346002800F0D081FD
:1023F00011F01AFA0546002800F0C781406F4FF629
:10240000FF732B8505F11C03002800F0B88105F14E
:10241000680205F164010B930CF01CF8B5F860201C
:10242000774B7848C5F844A122F4EF6222F0070206
:1024300042F4887242F00102A5F8602095F8392034
:1024400002F03F0262F07F0285F8392095F83C20C7
:1024500022F0030285F83C2095F83A2122F003028D
:1024600085F83A2195F87A2022F01F0285F87A2023
:1024700000214FF01B120027C5E91623C5E94A01C8
:10248000062200210020C5E94C01C5E91277EF853D
:102490002F6385F83B702F65A5F8C470A5F8C87048
:1024A000C5F80871A5F80C71A5F82071A5F8387168
:1024B00085F843716F67A5F87870A5F86471A5F881
:1024C000C02095F86621A5F8847122F0070285F8EE
:1024D0006621B5F8D820C5F8E07002F0F802A5F83A
:1024E000D82095F88621A5F8E47067F3041285F8E2
:1024F000862195F8AE2185F8E67067F3C30285F86A
:10250000AE21A5F8AC71A5F8B87111F0C7FCA5F81B
:10251000D20011F0C9FCD5F8BC113B4AA5F8D40093
:102520000A40C5F8BC2111F0C5FC95F8C02160F344
:10253000020285F8C02111F0C3FC0B9B236295F8C1
:10254000C031C5F8C47160F3C503C4E910ABC5E977
:102550007477C5E97277C5E90577ED6185F8C03113
:1025600015F010FB002840F0018194F8243001217F
:10257000C3F342030DF133008DF833300CF0F2F861
:10258000002800F0978098F8003003F00F03022B2A
:1025900000F1FF313AD0012B00F0EC8099F80100F6
:1025A0001030C000002B40F0D78098F80130103375
:1025B00000EBC300DB0000F54D7003F59A7303FBDD
:1025C00001012EE0C0F3C000324604F14B0114F0CB
:1025D0006DFCFF2884F826003FF4DCAE304614F092
:1025E00013FBB8F1000F7FF4D8AEE8E6002E3FF4FD
:1025F000EEAE0FB0BDE8F04F10F034B93423002038
:10260000480148017F4101000000FFF698F80130C1
:102610001033DB0003FB00F000F5AA70642303FB1A
:1026200001016148E461312300252360A1FB000121
:102630005BA3D3E90023C4E90555C4E90155FEF7BE
:102640001DFAB4F84890E0600DF096F90746B9F12C
:10265000000F08D198F8005005F00F05A5F101050D
:10266000B5FA85F56D0994F82400E36865F3000078
:1026700010F0010584F8240023D000204B4ADFF835
:102680003891049302250DF134080193059203213A
:10269000CDE9020006943B460090CDF82080CDF8AD
:1026A0001C902A460D950DF09BF841460FF0A0FCBA
:1026B00000283CD0236A002B3FF489AE10F090F83C
:1026C00085E63B4A3B48049303F24713A9FB00010C
:1026D000069402951360912303FB0911364B07936F
:1026E000324B05934FF6FF7309924FF002090393A3
:1026F0000DF134082AA3D3E90023CDF83490CDF8A6
:102700002080FEF7BBF93B46CDE900504A462846FB
:1027100003210DF00FF841460FF06AFC0028C9D1E3
:1027200094F84A3043F0010384F84A3050E6234AD3
:1027300005924AF2D8320092CDE90300CDE90100BA
:10274000CDF81C90CDF8208006943B460122032151
:102750000D950DF045F8DEE7062B3FF426AF4FF45C
:10276000DA734FF41B702AE7122631E610F038F8BE
:1027700003262DE64FF4F2734FF47F701FE705F147
:102780006C00686743E6072622E658460FF0B2FB66
:1027900050460FF0A3FB07261AE600BFAFF30080F8
:1027A0008D49FD1A0700000000CA9A3B6925010007
:1027B00088230020002AE784C11101004D24010074
:1027C0002DE9F04FC44D2B688BB004460F46904660
:1027D000002B00F00B82E38D668E1E4494F80E31C0
:1027E0003E4413F00703B6B240F09F81B4F8E8907E
:1027F000A6EB09021FFA82FB120400F1528294F93F
:102800003920002AC0F2338194F8E43084F8E530AE
:1028100094F8842194F8853194F80C1184F80D1102
:10282000934206D094F8863103F00703052B00F09D
:1028300043822B68A34204BF00232B60D4F80851C5
:10284000002D00F063812868002800F05F81B4F853
:102850001031B4F82AC04268C4F808216345B4F8BE
:102860001221B4F8141100F01681B4F828C0EB83DB
:1028700016232B710023A5F806C02A8469842B77C0
:1028800029460FF03DFB0FF045FB2368002BC0F2FB
:10289000F680608DB4F8105110FB0BF080B2B0FBE5
:1028A000F5F115FB01F39BB298421FFA81FAC0F0D3
:1028B000CD8005FB110140F2E243884889B203FB59
:1028C00001F1A1FB000182A3D3E90023FEF7D6F8B2
:1028D000A8EB0008E18D94F93930A9EB0609D14441
:1028E0000F444F44E785002B40F2E24707FB05F613
:1028F000C0F27E817A4A7B497B484FF426631AF006
:1029000099FB404080F311884FF0030002DF00275D
:102910003546764AB4F814317548B4F81211A185D9
:102920003244B2FBF6F2A4F8C62042F2107202FB67
:1029300003633044013BB0FBF6F0B3FBF6F6B4F8AA
:102940001031638583B2881D8342A4F8C260A4F865
:10295000CE3002DD5B1A063B9BB2A4F8CA3094F875
:102960000E311B0744BF0023A4F8C430022101200C
:1029700017F09CF800220221814601200BF0BAFDDD
:102980005C494FF4F07220460BF044FD03305FFACF
:1029900080FA594B00945246012100200CF0AAFF06
:1029A00030F002030CD04E4A54494F4840F68F2372
:1029B0001AF040FB404080F311884FF0030002DF23
:1029C000464EA5FB066542A3D3E9002330462946BF
:1029D000FEF754F8089420F07F4B06944848E368CB
:1029E0000493ABFB0001072303FB0B11454B07933B
:1029F000454B0593301A4FF6FE7365EB01010393C7
:102A00004FF47A720023FEF739F84346CDE901B05E
:102A100000975246012100200CF0E2FE30F0020344
:102A20000CD02F4A3549304840F6A9231AF002FB52
:102A3000404080F311884FF0030002DFB9F1000F2E
:102A400040F0348100200BB0BDE8F08F1B1A234901
:102A500040F2E24003FB00F0A0FB01011CA3D3E91C
:102A60000023FEF70BF820F07F40804432E794F813
:102A7000D920002A3FF4C8AE84F8D930C8E6D4E99A
:102A8000012123F0004391422CBF884490442360ED
:102A9000A8EB0308FDE6B4F82CC094457FF4E5AE3E
:102AA00040F2E24C0CFB03FE42F2107C0CFB01EC0A
:102AB0000CF1FF3CBCFBFEFCB4F8C2E01FFA8CFC3E
:102AC000E6457FF4D2AE01232B71D9E6AFF3008047
:102AD0008D49FD1A07000000A823002000CA9A3B78
:102AE000883502004C310200B4300200FF59620206
:102AF0007FC3C90118120020CD30010068360200E2
:102B00008D49FD1A75300100A96001007E4A7F4998
:102B10007F4840F6E4131AF08DFA404080F31188A4
:102B20004FF0030002DF286891E601200FF0F8F96A
:102B30000746002800F0C68076480BF035FC0546B5
:102B4000002800F0BF800FF009FA2B793A68D4F81A
:102B50000811516043F00303C4F8087100212B7180
:102B60000C236B71E97194F81C312B72A38DD4F88E
:102B700018211E44684BA3FB0232B4F81031A5F8AB
:102B80000B30920AB4F81231A5F80920A5F80D30DF
:102B900094F80E21B4F81431A5F80F300636D4F8A5
:102BA000C431B6B261F30202A4F8E86084F80E21E1
:102BB000A5F81160002B66D094F86621900762D4C6
:102BC00094F8BF21D1075ED4D4F8D0219342D4F831
:102BD000C82100F08280002A58D11A7902F003023D
:102BE000032A00F08680C4F8C83151E02860F2E57D
:102BF000226CA36CDFF8289102FB1B33A36415F051
:102C000013F8054694F8D800C0F3C20015F00EF88A
:102C1000054406FB05F5414B94F81C2105F5742588
:102C200005F23F25A3FB0535AD0C07FB02F2A36CB3
:102C3000226505FB0AF172080B44963A934228BFBD
:102C40001346C4E9112300232564C4F8E030A1FB36
:102C500009012BA3D3E90023FDF710FFD4F81831A5
:102C6000A8EB00082C48A0FB0330800A07FB00F00B
:102C700023A3D3E90023A0FB0901FDF7FFFE751B89
:102C800020F07F4745E6D4F8C82102B3D4F8CC3110
:102C90001A682A601D602B68C4F8CC510BB9C4F8BF
:102CA000D4516FF043000BB0BDE8F08F0122022138
:102CB00010460BF01FFCC5E6002384F88521A4F81C
:102CC000C830B6E56FF036000BB0BDE8F08F2B6072
:102CD000C4E97155C4F8CC51E0E71968C4F8D011C3
:102CE000002AD3D11A682A601D602B68C4E9725586
:102CF000D4E7DA79032AF5D00A2A7FF474AFF1E732
:102D00008D49FD1A07000000883502005436020084
:102D1000B43002002C2400205917B7D183DE1B43A6
:102D200000CA9A3B000000002DE9F047044690F8E5
:102D3000E50094F8E43098420E46154674D01B1A0C
:102D400003F00303022B3BD094F939E0F446BCF1C5
:102D5000000FC0F2938094F8412194F840319A42D8
:102D60005FD085480BF020FB002851D094F840310B
:102D700084F8413103790222427143F00303037165
:102D8000C271D4F8C43194F84221D4F8C811027247
:102D90008BB394F8662195072DD494F8BF21D20700
:102DA00029D4D4F8D021934200F07B8329BB1A792F
:102DB00002F00302032A00F03B87C4F8C8311EE08A
:102DC00094F8AD2194F8AC319A4206D094F8AE3123
:102DD00003F00603042B00F0D28194F8E6707B1E0A
:102DE000052B00F2B681DFE813F03E005901CF0059
:102DF000B4018B008000002971D0D4F8CC311A685E
:102E0000026018600368C4F8CC010BB9C4F8D4019F
:102E1000B4F8C80028B9B4F8C230012B48D9A4F8D6
:102E2000C8300020BDE8F08794F939E0BEF1000F0A
:102E3000F446C0F29E8194F8662112F0010886D112
:102E400094F80D9194F80C714F4500F0A082012286
:102E5000831E84F8E62084F8E53094F8AD2194F8D8
:102E6000AC319A42B2D1324629462046FFF7A8FC3F
:102E7000002840F07B816FF04700D3E794F8D92019
:102E8000002A3FF468AF022A00F03A81062A1DD0DA
:102E9000012A12D0394A3A493A4840F24F431AF0CF
:102EA000C9F8404080F311884FF0030002DF52E779
:102EB0000133A4F8C830BDE8F087324629462046E1
:102EC000FFF77EFC00287FF446AFD4E7E18D628EE9
:102ED0000A442A44204691B210F0E6FA3BE7036028
:102EE000C4E97100C4F8CC018FE7618EE38D194409
:102EF000294489B2204610F0D7FA94F939C026E760
:102F00001D480BF051FA002800F0308194F8E430AD
:102F100084F8E530037943F003030371012343711F
:102F20001223C371D4E97132002B00F07D8294F832
:102F30006611890700F1788294F8BF11CF0700F17C
:102F40007382D4F8D0118B4200F09086002A00F0F2
:102F50001387D4F8CC311A68026018600368C4F88B
:102F6000CC01002B00F0AF83B4F8C63094F939C01F
:102F7000A4F8C830EBE600BF2C24002088350200FE
:102F80004C310200B430020094F8F43013F003081E
:102F900000F0488194F93930002BBFF6DCAEB8F16F
:102FA000010F7FF46BAFD0480BF0FEF9804600288C
:102FB00000F0DC80037943F0030303714FF0040950
:102FC0000D2300F10807437180F807900C21384663
:102FD00014F090FB3946082204F1FE001CF07CFA44
:102FE0004A4608F1100104F198001CF075FAD4F873
:102FF000C431002B00F0728494F86611D4F8C82113
:103000008F0700F16D8494F8BF11C80700F1688440
:10301000D4F8D0118B4200F02A87002A00F09F8755
:10302000D4F8CC311A68C8F80020C3F80080D8F86A
:103030000030C4F8CC81002B00F0F6850EF08EFF36
:103040000746002800F09280238DFB8003233B710C
:10305000FB773B7F43F003033B77172308227B7703
:1030600004F2691107F120001CF036FA94F8673178
:1030700087F8283094F8683187F82930386839465D
:103080000EF03EFF0EF046FF94F8F43094F939C08C
:10309000022262F3010384F8F43058E6E28D638E75
:1030A000134494F8E8202B4412F001029FB26AD135
:1030B000B4F8EE3094F939C0FB1A1B043FF547AE63
:1030C000BCF1000FC0F2F78294F8E43084F8E530E8
:1030D00004F13407052204F1E90138461CF0FCF93B
:1030E000052138460BF03EFB94F839C0012360F30C
:1030F000050C84F839C084F8D8314FFA8CFC26E6E8
:10310000628EE18D94F8E8300A442A4413F00103FA
:1031100095B240F0F180B4F8EE20AD1A2E043FF5E0
:103120001AAE04F13405052284F8D93004F1E9011E
:1031300028461CF0D1F9052128460BF013FB94F822
:103140003930012260F3050384F8393084F8D8213E
:1031500001E6664A6649674840F21E4319F06AFF75
:10316000404080F311884FF0030002DF94F939C02A
:10317000EDE594F8D920002A7FF485AE5BE6204681
:1031800010F09CF829E658480BF00EF9804600280C
:10319000ECD0A38D94F8E8203B440633A4F8EE303D
:1031A00003796FF3000243F0030384F8E82003710E
:1031B000082343710123C371052204F1E90108309A
:1031C0001CF08AF9B4F8EE30A8F80D30D4F8C43108
:1031D000002B00F07B8294F86611D4F8C821880790
:1031E00000F1768294F8BF11C90700F17182D4F81A
:1031F000D0118B4200F01F86002A00F06787D4F8B8
:10320000CC311A68C8F80020C3F80080D8F8003024
:10321000C4F8CC8194F939C0002B7FF498ADC4F880
:10322000D48194E530480BF0BFF894F939C0814659
:1032300000283FF48CADBCF1000F00F1040A80F2CD
:10324000CC8294F87A301A0700F12A8494F8F58039
:10325000B8F1000F00F0B883037943F00303037162
:1032600094F8D830DB0740F1D784D4F828315807D8
:1032700040F1D284112389F80730032389F80980AB
:1032800089F8083089F80570D4F8C431002284F830
:10329000F520002B00F09C8494F86621910700F142
:1032A000978494F8BF21D20700F19284D4F8D021FA
:1032B0009342D4F8C82100F02187002A00F09C87AF
:1032C000D4F8CC311A68C9F80020C3F80090C4F8CB
:1032D000CC91D9F80030002B00F0F38294F8E43060
:1032E00084F8E53033E500BF2C2400208835020047
:1032F0004C310200B4300200B7480BF055F80646D6
:1033000000283FF428ADA38D94F8E81002792B44EF
:103310006FF30001063384F8E810A4F8EE3042F0B1
:1033200003020123082102714171C371052204F1D6
:10333000E90108301CF0D0F8D4F8C431B4F8EE201C
:10334000A6F80D20002B00F0CD8194F86611D4F87A
:10335000C821890700F1C88194F8BF11CF0700F197
:10336000C381D4F8D0118B4200F05785002A00F0B9
:10337000A486D4F8CC311A6832601E603368C4F871
:10338000CC61002B7FF4E7ACC4F8D461E3E494F89B
:10339000211194F82071B9424FD0C91BC8077FF59D
:1033A000D6AC94F8D83013F0010700F0A6810EF0E7
:1033B000D5FD074698B394F8203184F82131037F76
:1033C000228DC28043F00303037709234377C37739
:1033D000032303714146082220301CF0A8F8D4E9E9
:1033E0004C23110C87F82020C2F3072287F82120F4
:1033F0001A0C87F8243087F82210C3F30723090A30
:1034000087F82620120A87F8231087F8253087F8D6
:103410002720394608680EF073FD0EF07BFD94F806
:10342000E43094F8E5008AE4002A7FF492AD03606A
:10343000C4E97100C4F8CC0193E594F8391194F80B
:103440003871B9423AD0C91BC8077FF580AC94F8EF
:103450003A31D90740F17283990740F161830EF048
:103460007DFD0028DBD094F8383184F83931238D84
:10347000C38003230371037F43F003030377062311
:1034800043770C23C37794F83B3180F82030B4F8AD
:103490003C31A0F82130B4F83E31A0F82330014689
:1034A000B8E71A68C4F8D02100297FF4A6AC1A68DE
:1034B000026018600368C4E97200A6E494F885719C
:1034C00094F884118F4200F0FF81444F396800293D
:1034D00000F0B6838C427FF43AAC94F8861101F088
:1034E0000701052900F24D870FF2040858F821F072
:1034F000E135000057350000093500003F2D000080
:103500003F2D00003F2D000090073FF520AC0EF04E
:1035100025FD0146002882D094F886010B7F032206
:1035200043F0030362F30200182784F88601208D1C
:103530000A710B774F77B4F888310B84B4F88A316D
:103540004B84B4F88C318B84B4F88E31CB840F2348
:10355000C880CB775EE794F88731002B40F0C084B9
:10356000BEF1000FC0F24A8594F88611C4F81831F4
:10357000052262F3020194F8902184F8861101205B
:1035800084F81C01002A00F02B86B4F88831B3FBC4
:10359000F2F3034413FB02F39BB294F8862194F8F0
:1035A0000E11B4F88C01A4F81201C2F3C002D200CB
:1035B00021F00F0142F002020A4309F1FF39B4F889
:1035C0008E11A4F81031A4F8141184F80E2184F897
:1035D0000D91FFF7C0BB00BF2C240020A8230020C2
:1035E000D548B4F83280B4F82E900AF0DDFE0028F9
:1035F0003FF415AF03793C6043F0030303711823D4
:103600004371B4F888110181B4F88A114181002313
:10361000B4F88C11818108EB0902B4F88E1103749F
:10362000C37403754FF0FF33C18143758375C37550
:10363000037643768376C3760377437783772A448A
:10364000B4F8C6300F21C171A4F8C830A0F8112019
:1036500094F88631042262F3020384F88631D4F8A8
:10366000C431002B00F0F88394F86621920700F132
:10367000F38394F8BF21D70700F1EE83D4F8D0216B
:103680009342D4F8C82100F0E685002A00F059865C
:10369000D4F8CC311A6802601860C4F8CC01036811
:1036A000002B7FF4BCAEC4F8D40194F8E43094F855
:1036B000E500FFF744BB94F8D930002B3FF404AD8C
:1036C00084F8D92004E5C4F8D4014DE4D4F8C82125
:1036D000002A7FF494ADC8F80030C4E97188C4F8BA
:1036E000CC8197E5D4F8C821002A7FF442AE33603C
:1036F000C4E97166C4F8CC6143E68F480AF054FE11
:10370000804600283FF48BAE94F82131013B84F8C9
:1037100021319FED877B03793946092784ED4A7B68
:1037200043F0030388F8057088F8043094F93930C1
:103730000822002BACBF13460E23104488F8073034
:103740001BF0F5FED4E94A23110C88F80820C2F3D7
:10375000072288F809201A0C88F80C3088F80A101B
:10376000C3F3072388F80E20090A120A88F80B1001
:1037700088F80D3088F80F20D4F8C431002B00F001
:10378000CA8094F86611D4F8C821890700F1C58071
:1037900094F8BF11CF0700F1C080D4F8D0118B424C
:1037A00000F08E83002A00F00185D4F8CC311A682D
:1037B000C8F80020C3F80080D8F80030C4F8CC81E5
:1037C000002B00F06182B4F8C62094F8E43094F83D
:1037D000E500A4F8C820FFF7B2BA04F17B073B4626
:1037E000424604F1F60104F2711015F0BDFC3946B1
:1037F000102204F19C001BF06FFE082204F19401DA
:1038000004F1B5001BF068FE94F8933084F88B80C7
:1038100068F3000384F8933094F8B43084F88C8013
:1038200043F0010384F8B43094F87A3084F88D8042
:1038300043F00803C4E92B8884F88E8084F88F80D5
:1038400084F8908084F8918084F8928084F87A30AB
:10385000BAF1000F00F03482DBB243F0100384F8B9
:103860007A3099F8043043F0030389F804300123D7
:1038700089F80530D4E9712E062389F80730D2B3D0
:1038800094F86631980736D494F8BF31D90732D40A
:10389000D4F8D031934200F00383BEF1000F00F062
:1038A000BD84D4F8CC311A68C9F80020C3F8009060
:1038B000D9F80020C4F8CC9194F939C0002A7FF4DB
:1038C0000DADC4F8D49109E594F8AD2194F8AC316C
:1038D0009A4233D020460FF0F1FCA0E5D4F8C8217D
:1038E000002A7FF49DABC8F80030C4E97188C4F8A1
:1038F000CC81FFF7A0BBBEF1000F00F0C881D4F867
:10390000CC110B68C9F80030C1F80090D9F800203C
:10391000C4F8CC91D0E7D4F8C821002A7FF445AF91
:10392000C8F80030C4E97188C4F8CC8148E700BF0A
:103930007F410100000000002C24002094F8BC21ED
:1039400094F8BD3193423FF402AA94F8BE3103F0DB
:103950000301032900F0108300297FF4F7A9D4485C
:103960000AF022FD014600283FF459AD94F8BE311B
:1039700094F8BF01012262F3010394F8C02184F896
:10398000BE31C3F3820767F3020294F86070C0F39C
:10399000400060F3C30784F86070C3F342170879EE
:1039A00067F3C50284F8C021C3F38202032340F009
:1039B00003004B71162308710A724F720022CB71FB
:1039C00020460FF0FBF9FEE604F17B073B4642463A
:1039D00004F1F60104F2711015F0C6FB394610220D
:1039E00004F19C001BF078FD082204F1940104F11D
:1039F000B5001BF071FD94F8933084F88B8043F090
:103A0000010384F8933094F8B43084F88C8068F320
:103A1000000384F8B43094F87A3084F88D8043F051
:103A2000080384F87A3099F8043084F88E8043F0E3
:103A30000303C4E92B8884F88F8084F8908084F88D
:103A4000918084F8928089F80430012389F8053048
:103A5000052389F80730D4F8C431002B00F0C58065
:103A600094F86611D4F8C8218F0700F1C08094F84B
:103A7000BF11C80700F1BB80D4F8D0118B4200F011
:103A80002F83002A00F0C283D4F8CC311A68C9F819
:103A90000020C3F80090C4F8CC9194F939C018E420
:103AA000BAF1000F00F0728143F0100384F87A300D
:103AB000037943F003030371012343710623C371A8
:103AC000D4E9713C002B00F09C8094F866219707A4
:103AD00000F1978094F8BF21D00700F19280D4F8CC
:103AE000D0219A4200F0D382BCF1000F00F07C8319
:103AF000D4F8CC311A68C9F80020C3F80090C4F893
:103B0000CC91D9F80030002B00F02B8194F866316D
:103B100094F939C023F0030384F86631FFF7DEBB64
:103B2000644A654940F65E43644819F083FA4040B0
:103B300080F311884FF0030002DF70E45C480AF064
:103B400033FC00283FF46BAC94F83931013B84F826
:103B5000393194F83A3143F0010384F83A3103796A
:103B600043F003030371062343710C23C3710B233A
:103B700003726FF00E034372052383724FF0FF331D
:103B8000C3720373D4F8C431002B00F0878094F81B
:103B90006621920700F1828094F8BF21D7077DD477
:103BA000D4F8D0219342D4F8C82100F0CE82002A64
:103BB00000F0A883D4F8CC311A6802601860C4F809
:103BC000CC010368002B7FF4FEADC4F8D401FAE504
:103BD000D4F8C821002A7FF473ABC9F80030C4E9D7
:103BE0007199C4F8CC91FFF774BBD4F8C821002AAE
:103BF0007FF44AAFC9F80030C4E97199C4F8CC9198
:103C00004BE7BCF1000F7FF473AFC9F80030C4E993
:103C10007199C4F8CC9174E70D2389F8088089F86C
:103C200007300227FFF72EBBC4F8D481FFF706BA8E
:103C3000DA79032A3FF43BAC0A2A7FF4BEA836E4C3
:103C400094F8863103F00703052B00F29A8301A153
:103C500051F823F0E1350000573500000935000028
:103C60004F2D00004F2D00004F2D00001968C4F8A3
:103C7000D011002A7FF46DA91A68026018600368E9
:103C8000C4E97200FFF76DB9C4F8D4819BE5C9F8A7
:103C90000020C4E97199C4F8CC910DE6D4F8C8218C
:103CA000002A87D10360C4E97100C4F8CC0188E719
:103CB0002C240020883502004C310200B430020070
:103CC000AC480AF071FB002800F0C18294F87A3009
:103CD00043F0100384F87A3001234371037943F0F1
:103CE00003030371D4E9713C0622C271E6461A4609
:103CF000E3B194F86611890718D494F8BF11CF077F
:103D000014D4D4F8D021934200F00782BCF1000F04
:103D100000F01182D4F8CC110A6802600860C4F87F
:103D2000CC010268C2B11A46E646A9E5BCF1000F13
:103D30001AD0D4F8CC110F68076008600768C4F87F
:103D4000CC01014647B1002B3FF4DBAD94F866315E
:103D50009B077FF599ADD4E5C4F8D4011A46E64631
:103D60008DE5C4F8D491D1E603608446C4E97100BE
:103D7000C4F8CC010346D4E71A7902F00302032AFF
:103D800000F09381C4E97233FFF7E3B879480AF091
:103D90000BFB002800F0A88294F87A3043F010035F
:103DA00084F87A30012343710379D4F8C8C143F011
:103DB00003030371D4F8C4310622C271F3B194F83D
:103DC000662191071AD494F8BF21D20716D4D4F8EB
:103DD000D021934200F0DC81BCF1000F00F065823D
:103DE000D4F8CC110A6802600860C4F8CC010268FB
:103DF000002A7FF46AAEC4F8D40163E6BCF1000F78
:103E000046D0D4F8CC110A68026008600268C4F891
:103E1000CC01002A7FF456AEEDE71968C4F8D01142
:103E2000002A7FF4A6AA1A6832601E603368C4E9CB
:103E30007266FFF7A6BA1968C4F8D011002A7FF499
:103E4000DEA91A68C8F80020C3F80080D8F800304E
:103E5000C4E97288FFF7DEB9D4F8C821002A7FF4DC
:103E600017AC0360C4E97100C4F8CC0117E4196809
:103E7000C4F8D011002A7FF4D3A81A68C8F800202B
:103E8000C3F80080D8F80030C4E97288FFF7D3B8CF
:103E900003608446C4E97100C4F8CC010346A6E778
:103EA0001368C4F8D031BEF1000F7FF4FAACC9F842
:103EB0000030C2F80090D9F80020C4E97299FBE400
:103EC0001968C4F8D011002A7FF46FAC1A68C8F8DA
:103ED0000020C3F80080D8F80030C4E972886FE48D
:103EE00024480AF061FA00283FF499AA037943F0C4
:103EF000030303711123C371032343710F2303725F
:103F000094F887314372D4F8C431002B00F0B480A8
:103F100094F86621910700F1AF8094F8BF21D20791
:103F200000F1AA80D4F8D0219342D4F8C82100F03F
:103F30009F81002A00F0A881D4F8CC311A68026071
:103F40001860C4F8CC010368002B00F00A8194F8D3
:103F5000843184F8853100233B60FFF760BA1A7919
:103F600002F00302032A00F03381C4E97233FFF741
:103F700057B800BF2C240020190784F8BD21C3F3D3
:103F8000820240F1FA80022262F3840384F8BE3197
:103F900094F8BE3159064FEA531240F1E5800222EF
:103FA00062F3471384F8BE31831E94F8BE2194F85F
:103FB000607094F8610084F8E53094F8BF31C2F382
:103FC000820107F0070700F00700C3F380038F4268
:103FD00008BF00215B00B0EB521F43F001034FEA22
:103FE000521208BF002243EA421343EA8103062229
:103FF00084F8E83084F8E620FEF7EFBEBC480AF00B
:10400000D3F900283FF40BAA037943F003030371AB
:1040100018234371B4F888310381B4F88A3143819D
:10402000B4F88C318381B4F88E31C3811023C3710D
:1040300094F890310374B4F89221D4F8C431A0F804
:104040001120B4F89421A0F81320B4F89621A0F818
:104050001520B4F89821A0F81720B4F89A21A0F8F8
:104060001920B4F89C21A0F81B20B4F89E21A0F8D8
:104070001D20002B7FF44CAFD4F8C821002A7FF418
:104080005BAF0360C4E97100C4F8CC015BE71A6858
:10409000C4F8D021BCF1000F7FF42AADC9F800208C
:1040A000C3F80090C4E972992BE5DA79032A3FF44A
:1040B000E3AD0A2A7FF466AEDEE51A7902F0030268
:1040C000032A7DD0C4E97233FFF753B91A7902F09D
:1040D0000302032A00F0AC80C4E97233FFF78FB803
:1040E0001968C4F8D011002A7FF4CEAC1A68C9F858
:1040F0000020C3F80090C4E97299CEE41968C4F8AE
:10410000D011002A7FF4DCA81A68C9F80020C3F88F
:104110000090C4E97299FFF7DCB81A68C4F8D0219E
:10412000BCF1000F7FF4F6AD1A6802608446186097
:10413000C4E97200F5E51A7902F00302032A00F0DF
:10414000F880C4E972339C46E4E51968C4F8D011DC
:10415000002A7FF42FAD1A6802601860C4E972006B
:104160002FE5C4F8D401F2E6D70740F1958001228B
:1041700062F3471384F8BE3116E7D70794F8BE31CF
:1041800040F19C80012262F3840384F8BE31FFE693
:104190001268C4F8D021BCF1000F7FF421AE1A6878
:1041A000026084461860C4E9720020E61A7902F0C1
:1041B0000302032A00F09E80C4E97233FFF7F5BAC8
:1041C000DA79032A3FF42FAE0A2A7FF47BAF2AE67E
:1041D000DA79032A3FF451AE0A2A7FF4C6AE4CE6E0
:1041E000B4F88A31FFF7D9B91A7902F00302032A29
:1041F00026D0C4E972337BE41A7902F00302032A61
:1042000000F0A880C4E97233FFF75AB81A7902F0B7
:104210000302032A7ED0C4E9723335E4137903F034
:104220000303032B00F09E80C4E97222FFF739BB21
:10423000DA79032A3FF405AE0A2A7FF44DAF00E68F
:10424000DA79032A01D00A2AD3D11A6826E7D4E9F9
:10425000712EFFF714BB1968C4F8D011002A7FF43F
:1042600017AA1A6802601860C4E97200FFF717BA4B
:104270001968C4F8D011002A7FF45EAE1A68026093
:104280001860C4E972005EE61A7902F00302032A9C
:1042900024D0C4E972334FE612F0040218BF04229E
:1042A00062F3471384F8BE317EE61A7902F0030206
:1042B000032A0CD0C4E972339C4691E512F0040243
:1042C00018BF042262F3840384F8BE3160E6DA7911
:1042D000032A3FF464AF0A2AECD160E7DA79032AB3
:1042E000CCD00A2AD5D1C9E7D4E9713CFFF7EABBA3
:1042F0002C240020DA79032A3FF4E8AD0A2A7FF45F
:104300005BAFE3E51A7902F00302032A0AD0C4E99D
:1043100072334FE4DA79032A3FF4E8AE0A2A7FF4D5
:104320007AAFE3E6DA79032A3FF415AF0A2AEED131
:1043300011E7DA79032A3FF4F7AE0A2A7FF401AFD6
:10434000F2E61A7902F00302032A13D0C4E97233A9
:10435000FFF79EB9DA79032A3FF4D6AE0A2A7FF432
:1043600051AFD1E6D379032B02D00A2B7FF45CAF97
:1043700013689CE5DA79032A3FF473AF0A2AE5D182
:104380006FE7034A034940F68953FFF7CDBB00BFEF
:10439000883502004C3102002DE9F04F14461268B6
:1043A00097B01F4613680B930B7FD7F80080C3F3B9
:1043B00080130D46814606221E3114A88DF8473021
:1043C0001BF08AF894F812A0BAF1FF0F12AE57D082
:1043D00032460DF14701504612F088F99DF84730FA
:1043E00002338DF84730032205F12E0107F1080052
:1043F00007F1040B1BF070F807F11803042205F114
:104400002A0158460A931BF067F80A9B052205F11A
:104410003A0118461BF060F80A9B052118460AF07D
:10442000A1F97B7F95F83F2000F03F0060F3050382
:104430007B77C2F30403BB77AB8EFB81012899B273
:1044400002F01F0305D91B3303F01F030B2B00D809
:10445000E1B997F8203001266FF3000387F8203088
:104460002E716468484629460DF04AFD2068267181
:1044700021460DF045FD0DF04DFD17B0BDE8F08F64
:10448000062214A930461BF027F8ACE72368002069
:10449000586095F8370095F8363043EA00233B82A0
:1044A00098F8D830520962F3C5036A8E0D9240F233
:1044B000E24202FB01F088F8D8300A9013F0B4FB16
:1044C0000C9098F8D800C0F3C20013F0AFFB0C9B1F
:1044D000B949B7F810E003440A9800FB03F303F569
:1044E000742303F23F23A1FB03239B0C7B6295F80B
:1044F000313040F2E24203FB02F24308963BBA63DA
:10450000BB622B8FAD4AADF83A309C46AC4B0146AE
:1045100003440244B3FBF0F3B2FBF0F242F210703A
:10452000A8F8C6201FFA8CF200FB0212013A0EF125
:104530000600B2FBF1F2A8F8C2209AB28242A8F8B3
:10454000CE2003DDA2EB0E02063A92B2A8F8CA20F2
:104550005946042208F1DC001AF0BEFF4FF48072C5
:104560002B7FAA830B9A92F82600C3F340120F9276
:104570000C9212F0B5FD05F12B03002800F0E48049
:104580001846062205F124011AF0A6FFBAF1FF0F22
:1045900005F1250000F0DE8014A906221AF09CFF28
:1045A0009DF84730AB773146062205F11F001AF01F
:1045B00093FF98F8D830FA896A863A8AAA86C3F3B4
:1045C000C203BDF83A2085F83830EA8640460FF03D
:1045D00037F92946B881E880656848460DF090FCB7
:1045E000BB89EB8019232B710C9B2E68002B40F0AC
:1045F000BE809DF83C302B77294630460DF080FC7C
:104600000DF088FC97F84500012100F0070013F039
:10461000DDF905466B484FF0000905F252413123A0
:10462000C8F80030C8E9019961A3D3E90023A1FBD0
:104630000001FCF723FA0A9B7E6A0D9A9E1BE36831
:1046400040F2E24101FB023320F07F4003F2863169
:104650004B1B4A460221C8F80C0001200A9309F0BE
:1046600049FF0B9D28460EF0C1FA0230C2B2564BEC
:104670000095484601210BF03DF9012800F08280A9
:104680000B9B93F82430DB0769D440460FF0D8F831
:10469000DFF83091A6FB095645A3D3E900238346F2
:1046A00031462846FCF7EAF9A368CDF818800BF1EB
:1046B0000304A3F1310B454B0793454B059340F29F
:1046C000A1130893D8F80C3020F07F4741484FF0F1
:1046D000000ACDE903A3A7FB00010723281A03FB67
:1046E000071166EB01014FF47A720023FCF7C6F95B
:1046F0000A9BCDE90170A3FB09012DA3D3E9002397
:10470000FCF7BCF9E4B220F07F4000905B46224603
:10471000012150460BF064F830F002030CD02E4A11
:104720002E492F484FF4D17318F084FC404080F399
:1047300011884FF0030002DF01220221104609F028
:10474000D9FE17B0BDE8F08F0146062218461AF0D0
:10475000EEFE1BE7062200211AF0E9FE20E7002307
:1047600001220093184611460BF0C4F88DE77B7FB9
:1047700043F040037B77584611F0B0FD0123F883E6
:104780002B7739E70DF074FC0B9B83423FF478AF35
:10479000114A1449124840F2322318F04BFC4040B1
:1047A00080F311884FF0030002DF69E7AFF3008068
:1047B0008D49FD1A0700000083DE1B43FF5962028A
:1047C0007FC3C90100CA9A3B6D6001003D600100D2
:1047D000A96001008D49FD1AB03702006836020059
:1047E000B430020008380200354A364910B50023BB
:1047F000354C137004EBC3025278072A02EB820C8B
:1048000005D811F83C206FF3451201F83C2014F84C
:1048100033206FF3000204F833200133082BE9D171
:104820002A4A2B4C002313700A7863F300020A70A3
:1048300091F8282063F3000281F8282091F8502095
:1048400063F3000281F8502091F8782063F30002AE
:1048500081F8782091F8A02063F3000281F8A0206D
:1048600091F8C82063F3000281F8C82091F8F02085
:1048700063F3000281F8F02091F8182163F300023D
:1048800081F81821134A9FED0C7B1370124B83EDB6
:10489000007B124B236028B1BDE81040104911483D
:1048A0001DF07CBB0F481DF085FBBDE810400D4896
:1048B0001DF094BBAFF30080FFFFFFFFFFFFFFFF82
:1048C00063350020EC25002064270020623500209D
:1048D0006027002061350020F8130020A0BB0D00E8
:1048E000E56D0100001400202DE9F0472DED028B4D
:1048F0009FED478B484F84B0044600F1E0064FF02F
:104900002003EFF3118883F31188BFF36F8FD4F87E
:10491000C850C5B9022130461DF0AAFA40B104F1D1
:10492000D8050022012128461DF064FA0028F8D19C
:1049300000238DED008B029304F1D00241463846EE
:1049400017F01CFCDBE7D4F8CC202B68C4F8C83087
:10495000954201D1C4F8CC30D4F8E03043F00203E2
:10496000C4F8E03088F31188BFF36F8FD5F8048066
:104970004FF02003EFF3118A83F31188BFF36F8F99
:10498000EB6823F00403C3F34002EB6082F00109FB
:104990001AB1284617F024FD02E043F00103EB6052
:1049A0008AF31188BFF36F8FB9F1000F16D14FF062
:1049B0002003EFF3118283F31188BFF36F8FD4F8D4
:1049C000E03023F00203C4F8E03082F31188BFF333
:1049D0006F8FDB0593D417F0C3FA90E72846C047E2
:1049E0004FF02003EFF3118883F31188BFF36F8F2B
:1049F000EB6823F001039A07EB6002D5284617F015
:104A0000EFFC88F31188BFF36F8FD0E7AFF300801E
:104A1000FFFFFFFFFFFFFFFF6C350020014818F08C
:104A200009BB00BF923F020011B1034818F002BB5E
:104A3000024818F0FFBA00BFB03F0200D03F0200AA
:104A400070B5002088B004F0D7FA064630B10146B0
:104A5000124808B0BDE8704018F0ECBA104D11488B
:104A600018F0E8FA0FCD03AC0FC42B6823600E4991
:104A700000963346032203A805F038F9014640B1F9
:104A80000A4818F0D7FA0A4808B0BDE8704005F0A7
:104A900015BC084818F0CEFAF5E700BFDB3F02006E
:104AA00090270200FB3F020068280200124002002B
:104AB00038010020384002002DE9F04F2DED088B21
:104AC0004FF0000A85B04FF0000B00F0B1F8FFF78F
:104AD000B7FFCDE902ABCDE900AB00244BEC1BAB3B
:104AE0004BEC1AAB26462546424F3B68022B39DD7C
:104AF0000021212017F0C0FA2046FBF743FC0246B4
:104B00000B4650465946FBF7D1FD41EC190B304698
:104B1000FBF738FC02460B46DDE90201FBF7C6FD58
:104B200041EC180B2846FBF72DFC02460B46DDE94D
:104B30000001FBF7BBFDB0EE492AF0EE692AB0EEAA
:104B4000481AF0EE681A002441EC100BFCF71CF92F
:104B50005BEC1BAB8DED02AB8DED00AB3C602646F4
:104B60002546C1E70120FCF7BFF959EC108B224B19
:104B700010EE100A00224946FBF7FEFE40B1DDE9C7
:104B8000000142464B46FBF7B1FACDE90001013581
:104B90000220FCF7A9F959EC108B174B10EE100A04
:104BA00000224946FBF7E8FE40B1DDE9020142463A
:104BB0004B46FBF79BFACDE9020101360320FCF7D7
:104BC00093F959EC108B0C4B10EE100A0022494659
:104BD000FBF7D2FE40B15046594642464B46FBF7E2
:104BE00085FA013482468B46024A1368013313600A
:104BF0007AE700BFB01600200000F0BF70B5054690
:104C000086B00A48CE680C46CDE904321AF037FC6B
:104C1000BDF82810009180B2CDE90160DDE90432D1
:104C2000214628461CF027F806B070BD7A07002000
:104C300008B5184818F0FEF900F072FA18F056F9A5
:104C400018F072F9012000F0F9F9013008D112488A
:104C500018F0F0F94FF48040002117F00DFAFEE74C
:104C600018F068F90D4800F029F8012000F028F943
:104C700044F2480018F001F843F6AC7018F003F85D
:104C8000642018F052F8BDE808404FF6E85000F0F4
:104C90008BB900BF5A4002006C4002006006002041
:104CA000054B1B68DB6843EAC232024342EA815289
:104CB0000820002117F0ECBF800100202DE9F84307
:104CC000067847784279724B013F042E33F8128000
:104CD0000446FFB200F0BE80F31FD3F1000949EB98
:104CE00003096C4DE1792B685A69002940F0B580C1
:104CF00042F480025A614FEAD808217A5A6919723F
:104D0000090401F4403122F440320A435A6100217F
:104D1000042017F0BDFF424642F604012E2017F092
:104D20009DFF384617F0ECFF5B4B13F806805B4B9A
:104D3000072153F828202B2017F0AAFF584B0B21EE
:104D400013F808202B2017F07CFF564B0B2113F88B
:104D50000920282017F075FF534B0C2153F8282009
:104D6000282017F095FFE279A37903EB42034F4A1D
:104D7000022132F81320272017F070FF4C4B04213A
:104D800033F81720272017F069FFE379002B68D14B
:104D900064220621272017F061FFE378454A03EBE0
:104DA0008703082152F82320272017F071FF638919
:104DB00013B941F241036381DFF800816289202148
:104DC000272008EB470717F049FFD8F800200C21EF
:104DD000232017F05DFF2320BA88042117F03EFF3F
:104DE000A079002852D0E379334A2120D25C0021F7
:104DF00017F027FF01220320617906F00F0343EA31
:104E0000C16361783601F6B28904334301F440216D
:104E10000B432179890501F0F8610B4343EA005304
:104E200043EA424200211F2017F032FFA278637844
:104E30001343E279520342EA03422B680021DA600D
:104E4000082017F025FFBDE8F843422200210D207D
:104E500017F0F7BE4FF0010943E722F480025A61D0
:104E60004BE7A378042B0AD110220621272017F044
:104E7000F5FE10222621272017F0E3FE8DE72022E1
:104E80000621272017F0EAFE2822F3E70246B3E7BF
:104E9000543F02008001002078400200F828020000
:104EA000834002008940020010290200863F020070
:104EB000503F0200D828020080400200D0280200A3
:104EC00013B510F0010104462AD00021262017F066
:104ED0007DFE20F4705040F4A0520021262017F0EF
:104EE000D7FE0021362017F071FE002140F40402A5
:104EF000362017F0CDFE14F002040F4A4FF02801BF
:104F000008BF4FF48872362017F0C2FE8CB14FF400
:104F100088722821362002B0BDE8104017F0B8BED4
:104F20002620019117F052FE019920F4705226209C
:104F3000F1E702B010BD00BF10010F0010F0020237
:104F400010B5044609D0802200210D2017F079FE0B
:104F5000144B1B6801229A76802214F0010418D0A9
:104F600042F0060200210D2017F06BFE03210F20F6
:104F700017F049FE10F481600AD040220D20002174
:104F800017F05FFE074B1B6800229A764FF0FF3048
:104F900010BD0D2042F00202214617F052FE2046BD
:104FA000F6E700BF8001002070B50321054604200C
:104FB00017F03AFE0E4E044695B12A4600210C2009
:104FC00017F04CFE3268536943F08053536144F04C
:104FD0001002D2B2BDE870400321042017F031BEA8
:104FE0003268536923F08053536100F0EF02F1E718
:104FF0008001002008B517F025FF002211462C2063
:1050000017F02CFE002206212C2017F01AFE17F0B4
:105010006AFE00220321362017F013FE012017F04C
:10502000C5FFF0220321362017F00BFE024B1B6850
:1050300000229A7608BD00BF80010020F8B5364DE9
:105040002B680024C3E90A44C3E90C445C749C76D1
:105050001C83064617F0CBFD304B984259D1FFF721
:10506000C9FF204617F072FE21460422242017F0C3
:10507000E8FD1E2017F021FE2B68C0F3072204462E
:105080005A72042017F019FEC0B248B10222122150
:105090002D2017F0D6FD2A68138B43F48053138319
:1050A00006202F6817F009FE386007202F6817F0D8
:1050B00004FE2B68786014F01F040ABF10221C74D1
:1050C0001A74187C17F0D6FEF30716D517F0A8FE51
:1050D0002A68138B43F400631383012017F036FE14
:1050E00000220A212C2017F0ACFD002104202C689E
:1050F00017F06CFD60610020F8BD0521362017F027
:1051000082FD20F4007082B20521362017F0A6FD42
:10511000E3E74FF0FF30EFE7800100203001CADE07
:1051200070B5204816F0FAF91F4B186030B91F49C6
:105130001F4817F07FFF4FF0FF3070BD41F2111292
:105140001C4D1A811C4A2A6000245C6093605361E4
:105150001362D362194816F0E1F9194B186010B9BF
:1051600012491848E5E72B68174E184D4FF4807226
:105170009A80174A1A602146FF2230461AF0D7F962
:10518000FF22214628461AF0D2F9124B1249134A3F
:105190001E609D600B600833136001234B605360F9
:1051A0002046CAE78B40020008170020D4400200C6
:1051B000924002002017002024170020AC4002007B
:1051C0001C170020B2400200C62E0020C72D002070
:1051D00080841E00F81600205417002014170020A9
:1051E00008B50A4A0A4B13604FF480729A80094A44
:1051F0001A600021FF2208481AF099F9BDE808401A
:105200000648FF2200211AF092B900BF20170020A3
:105210002417002080841E00C62E0020C72D0020E9
:1052200008B50B4B0B4A0C4803F10C0111604FF40D
:1052300080721A82094ADA600021FF221AF077F997
:10524000BDE808400648FF2200211AF070B900BFEF
:105250002417002020170020C62E002000127A00FC
:10526000C72D00202DE9F3411F4615460446019144
:1052700017F08FFEDFF8548001992246064640461B
:105280001AF02AF9394608EB04002A461AF024F9E4
:10529000094B2C445C60DC60084B1868084B1968AB
:1052A0008368084A1C68084BA047304617F07AFE0E
:1052B000002002B0BDE8F081F81600201C17002085
:1052C000201700205417002014170020C62E00209D
:1052D0002DE9F0471F4604468946154617F059FE4A
:1052E000DFF868A004EB0508424606460021504658
:1052F0001AF01DF94946224650461AF0EDF80D4BBA
:10530000C3F80480C3F80C800B4B18680B4B19686A
:1053100083680B4AD3F800800A4BC0470A492A46E3
:10532000214438461AF0D8F8304617F03BFE0020EA
:10533000BDE8F087F81600201C1700202017002079
:105340005417002014170020C72D0020C62E00205F
:10535000014B1860704700BF8401002030B585B054
:10536000CDE901010446002501A905480395FBF795
:1053700087FEDDE902309842B8BF255405B030BD44
:105380000FD001002DE9F74FB0F8189019F0080878
:10539000044693460ED001290CBF49F0100949F08C
:1053A0002009A0F818908BF31188BFF36F8F03B01A
:1053B000BDE8F08FDFF890A109F00709022907D1B5
:1053C000204617F051FE0028EDD00128238B4BD149
:1053D0006769218B002F15DA256821F00701C4E9E0
:1053E000008841F0010121830026218B01F0070292
:1053F0004A4502D0A368002B57D10DB9002E6FD0BB
:10540000002353E001F007035A1F012A1DD821F0A1
:105410000701062B256889B2C4E900880AD13DB18D
:10542000638B2A46126801339BB2002AFAD1638348
:1054300041F002012183204617F016FE0028D3D048
:10544000238B43F020032383CEE7042B0AD121F0E2
:10545000070189B22183204617F006FE10B141F002
:10546000200121830025BFE7032809D1226923F009
:105470000703166843F00603238300252F46B4E78D
:10548000042806D1226923F00703566843F0040379
:10549000F2E7052806D1226923F00703966843F056
:1054A0000503E9E700252E46E8E7012341F008015E
:1054B00021838BF31188BFF36F8F03BB002D31D194
:1054C00016B151462046B0474FF02003EFF3118B41
:1054D00083F31188BFF36F8F238B23F0080323839B
:1054E000238BDA0627D523F0100323830121B4F898
:1054F000189009F0070900297FF460AF53E7A1680D
:105500000029DBD0D1F80090D1F804B001923B46DD
:105510002046D847019AB9F1000FCFD04946D9F8B3
:105520000090F1E729463B46204601922D6817F08E
:10553000B7FD019AC2E713F020011EBF23F020033C
:1055400023830221D3E700BFCDD0010030B510493D
:10555000104889B000221CF0CAFD0F4D0F490022EF
:105560000023CDE9062300240E23CDE90334CDE941
:1055700001440B4B00944FF44072284616F0A8FEED
:10558000084928461CF06DFC204609B030BD00BF1C
:10559000A9550000080A0020400A002070350020AC
:1055A00005590000E2400200014816F0F9BD00BFB5
:1055B000A008002008B500F069FA094818F06FF952
:1055C00004234822074908481CF030FA074B084AD0
:1055D0001A604FF40040BDE8084000F09FBC00BFD7
:1055E00068170020605700207017002088010020F5
:1055F000DDD80100F8B50F4BBFF35B8F002553E8F2
:10560000007F43E80052002AF9D1BFF35B8F0A4CB8
:105610000A4E361B3611B54200DBF8BD63685B7974
:105620002BB12368DB6813B1394620469847013512
:105630001034F0E7601700203027020050270200E6
:10564000064BBFF35B8F53E8002F013243E8002184
:105650000029F8D1BFF35B8F704700BF60170020AF
:10566000044A054B9B1AB1EBD30F34BF52F83100FB
:1056700000207047D825020030270200094A4368FD
:10568000801A10B50011084C196001300122187100
:105690005A71237813B9054816F082FD012323704F
:1056A00010BD00BF30270200C52F0020A008002039
:1056B00070B5114BBFF35B8F53E8005F6A1C43E882
:1056C00000210029F8D1BFF35B8F2DB90B4C0C4E94
:1056D000361B3611B54200DB70BD237B4BB123680E
:1056E0005B690BB120469847042200212046FFF752
:1056F000C5FF01351034EDE76417002030270200A4
:1057000050270200164B984237B5044602D3154B7A
:10571000984220D314480022002301A916F092F8E1
:105720000546D8B90122019BBFF35B8F53E8001FE8
:1057300043E800200028F9D1BFF35B8F0198214690
:105740004122043019F089FE019C7E2384F8453003
:1057500084F846500434204603B030BD034CFAE7C9
:10576000CC230200DC5F020070170020EA40020038
:1057700050B1064B984206D303F5907398422CBF64
:105780000020012070470020704700BF60570020B4
:105790002DE9F04F4D4B1B7885B0044603B960B33B
:1057A0004FF02003EFF3118683F31188BFF36F8F5F
:1057B000474818F084F8054686F31188BFF36F8FC9
:1057C00078B1BFF35B8F434B53E8002F013A43E8B6
:1057D00000210029F8D1BFF35B8F94B1284618F05F
:1057E000A7F924B93C4B1B680BB1FFF703FF3848FE
:1057F00018F063F8041E18BF0124204605B0BDE868
:10580000F08F364B1B78E3B92B7ADB0719D418F0ED
:10581000A2F90746284618F069F90146384618F0FB
:1058200061F8DFF8D8802E4BDFF8D4B0A3EB080383
:10583000DB0803932B4BA3EB080306464FEAD30A7E
:1058400036B9294E294FBF1B3F114FF000083AE0EF
:10585000B6FA86F1C1F11F094946284618F049F900
:10586000234B9842014602D3224A90421AD308465B
:10587000FFF77EFF0246A8B91F4B994212D06B89F1
:105880000399C3F389138B4238BF58F833204FEA8A
:105890008A1343F00103ADF8003049463B465846B1
:1058A00018F07FF8012303FA09F126EA0106C7E799
:1058B00073685B7923B1336829461B683046984783
:1058C00008F101081036B845F2DB87E7C52F002044
:1058D000681700205C17002060170020C62F0020EA
:1058E00030270200F826020030270200502702006D
:1058F000CC230200DC5F0200EA400200D82502004F
:105900000441020010B5FFF7D3FE16F0CFFB0C4B9D
:10591000186030B10B4B1B68092B02DD0A4816F0EA
:105920003FFC094C0020FFF733FF0028FAD14FF06D
:10593000FF324FF0FF33204616F058FCF2E700BF6D
:105940008C1700205C170020A0080020294B37B5D9
:105950001B68418104469847E0604FF02003EFF355
:10596000118583F31188BFF36F8F2348214617F009
:105970009AFF85F31188BFF36F8FBFF35B8F1F4BC7
:1059800053E8002F013243E800210029F8D1BFF38A
:105990005B8F1B4A127882B14FF02003EFF3118422
:1059A00083F31188BFF36F8F0020FFF7F1FE84F3BC
:1059B0001188BFF36F8F03B030BD124A1B681268A5
:1059C000002AF8D0012B0AD100220023CDE90023C0
:1059D0000D484FF40042002316F07AFFEBE70A2B44
:1059E000E9D109481CF08FFB084803B0BDE83040FE
:1059F00016F0D6BB88010020681700205C17002035
:105A0000C62F00208C170020080A0020A0080020C4
:105A1000F8B50E4F3D7875B90D4C0E4EFFF748FEA8
:105A2000361B3611B54207DB0020FFF7B1FE002818
:105A3000FAD101233B70F8BD63685B791BB1236821
:105A400020461B69984701351034EBE7C62F00202C
:105A5000302702005027020007B504380190BFF339
:105A60005B8F50E8003F5A1E40E800210029F8D122
:105A7000BFF35B8F012B03D1034801A915F012FF7F
:105A800003B05DF804FB00BF701700200249034813
:105A9000C02320221BF0CABF80580020901700208E
:105AA00037B50023094D01930120FFF771FE04462D
:105AB000FFF7C6FD0022002301A9284615F0C2FE0B
:105AC00008B1002CF0D1019803B030BD9017002030
:105AD00007B50023019307480022002301A915F010
